{
  "_format": "hh-sol-artifact-1",
  "contractName": "ReefMonitor",
  "sourceName": "contracts/ReefMonitor.sol",
  "abi": [
    {
      "inputs": [],
      "stateMutability": "nonpayable",
      "type": "constructor"
    },
    {
      "inputs": [
        {
          "internalType": "address",
          "name": "owner",
          "type": "address"
        }
      ],
      "name": "OwnableInvalidOwner",
      "type": "error"
    },
    {
      "inputs": [
        {
          "internalType": "address",
          "name": "account",
          "type": "address"
        }
      ],
      "name": "OwnableUnauthorizedAccount",
      "type": "error"
    },
    {
      "inputs": [],
      "name": "ReentrancyGuardReentrantCall",
      "type": "error"
    },
    {
      "anonymous": false,
      "inputs": [
        {
          "indexed": true,
          "internalType": "string",
          "name": "reefId",
          "type": "string"
        },
        {
          "indexed": false,
          "internalType": "enum ReefMonitor.HealthStatus",
          "name": "status",
          "type": "uint8"
        },
        {
          "indexed": false,
          "internalType": "uint256",
          "name": "timestamp",
          "type": "uint256"
        }
      ],
      "name": "HealthAlert",
      "type": "event"
    },
    {
      "anonymous": false,
      "inputs": [
        {
          "indexed": true,
          "internalType": "address",
          "name": "previousOwner",
          "type": "address"
        },
        {
          "indexed": true,
          "internalType": "address",
          "name": "newOwner",
          "type": "address"
        }
      ],
      "name": "OwnershipTransferred",
      "type": "event"
    },
    {
      "anonymous": false,
      "inputs": [
        {
          "indexed": true,
          "internalType": "address",
          "name": "provider",
          "type": "address"
        }
      ],
      "name": "ProviderAuthorized",
      "type": "event"
    },
    {
      "anonymous": false,
      "inputs": [
        {
          "indexed": true,
          "internalType": "address",
          "name": "provider",
          "type": "address"
        }
      ],
      "name": "ProviderRevoked",
      "type": "event"
    },
    {
      "anonymous": false,
      "inputs": [
        {
          "indexed": true,
          "internalType": "string",
          "name": "reefId",
          "type": "string"
        },
        {
          "indexed": false,
          "internalType": "uint256",
          "name": "healthScore",
          "type": "uint256"
        },
        {
          "indexed": false,
          "internalType": "uint256",
          "name": "timestamp",
          "type": "uint256"
        },
        {
          "indexed": false,
          "internalType": "address",
          "name": "reporter",
          "type": "address"
        },
        {
          "indexed": false,
          "internalType": "enum ReefMonitor.DataSource",
          "name": "source",
          "type": "uint8"
        }
      ],
      "name": "ReefDataUpdated",
      "type": "event"
    },
    {
      "inputs": [
        {
          "internalType": "address",
          "name": "provider",
          "type": "address"
        }
      ],
      "name": "authorizeProvider",
      "outputs": [],
      "stateMutability": "nonpayable",
      "type": "function"
    },
    {
      "inputs": [
        {
          "internalType": "address",
          "name": "",
          "type": "address"
        }
      ],
      "name": "authorizedProviders",
      "outputs": [
        {
          "internalType": "bool",
          "name": "",
          "type": "bool"
        }
      ],
      "stateMutability": "view",
      "type": "function"
    },
    {
      "inputs": [
        {
          "components": [
            {
              "internalType": "string",
              "name": "reefId",
              "type": "string"
            },
            {
              "internalType": "string",
              "name": "location",
              "type": "string"
            },
            {
              "internalType": "uint256",
              "name": "healthScore",
              "type": "uint256"
            },
            {
              "internalType": "uint256",
              "name": "temperature",
              "type": "uint256"
            },
            {
              "internalType": "uint256",
              "name": "phLevel",
              "type": "uint256"
            },
            {
              "internalType": "uint256",
              "name": "coralCoverage",
              "type": "uint256"
            },
            {
              "internalType": "string[]",
              "name": "speciesDetected",
              "type": "string[]"
            },
            {
              "internalType": "string",
              "name": "imageHash",
              "type": "string"
            },
            {
              "internalType": "uint256",
              "name": "timestamp",
              "type": "uint256"
            },
            {
              "internalType": "address",
              "name": "reporter",
              "type": "address"
            },
            {
              "internalType": "enum ReefMonitor.DataSource",
              "name": "source",
              "type": "uint8"
            }
          ],
          "internalType": "struct ReefMonitor.ReefData[]",
          "name": "_dataBatch",
          "type": "tuple[]"
        }
      ],
      "name": "batchSubmitReefData",
      "outputs": [],
      "stateMutability": "nonpayable",
      "type": "function"
    },
    {
      "inputs": [],
      "name": "getAllReefIds",
      "outputs": [
        {
          "internalType": "string[]",
          "name": "",
          "type": "string[]"
        }
      ],
      "stateMutability": "view",
      "type": "function"
    },
    {
      "inputs": [
        {
          "internalType": "uint256",
          "name": "score",
          "type": "uint256"
        }
      ],
      "name": "getHealthStatus",
      "outputs": [
        {
          "internalType": "enum ReefMonitor.HealthStatus",
          "name": "",
          "type": "uint8"
        }
      ],
      "stateMutability": "pure",
      "type": "function"
    },
    {
      "inputs": [
        {
          "internalType": "string",
          "name": "_reefId",
          "type": "string"
        }
      ],
      "name": "getLatestReefData",
      "outputs": [
        {
          "components": [
            {
              "internalType": "string",
              "name": "reefId",
              "type": "string"
            },
            {
              "internalType": "string",
              "name": "location",
              "type": "string"
            },
            {
              "internalType": "uint256",
              "name": "healthScore",
              "type": "uint256"
            },
            {
              "internalType": "uint256",
              "name": "temperature",
              "type": "uint256"
            },
            {
              "internalType": "uint256",
              "name": "phLevel",
              "type": "uint256"
            },
            {
              "internalType": "uint256",
              "name": "coralCoverage",
              "type": "uint256"
            },
            {
              "internalType": "string[]",
              "name": "speciesDetected",
              "type": "string[]"
            },
            {
              "internalType": "string",
              "name": "imageHash",
              "type": "string"
            },
            {
              "internalType": "uint256",
              "name": "timestamp",
              "type": "uint256"
            },
            {
              "internalType": "address",
              "name": "reporter",
              "type": "address"
            },
            {
              "internalType": "enum ReefMonitor.DataSource",
              "name": "source",
              "type": "uint8"
            }
          ],
          "internalType": "struct ReefMonitor.ReefData",
          "name": "",
          "type": "tuple"
        }
      ],
      "stateMutability": "view",
      "type": "function"
    },
    {
      "inputs": [
        {
          "internalType": "string",
          "name": "_reefId",
          "type": "string"
        }
      ],
      "name": "getReefHistory",
      "outputs": [
        {
          "components": [
            {
              "internalType": "string",
              "name": "reefId",
              "type": "string"
            },
            {
              "internalType": "string",
              "name": "location",
              "type": "string"
            },
            {
              "internalType": "uint256",
              "name": "healthScore",
              "type": "uint256"
            },
            {
              "internalType": "uint256",
              "name": "temperature",
              "type": "uint256"
            },
            {
              "internalType": "uint256",
              "name": "phLevel",
              "type": "uint256"
            },
            {
              "internalType": "uint256",
              "name": "coralCoverage",
              "type": "uint256"
            },
            {
              "internalType": "string[]",
              "name": "speciesDetected",
              "type": "string[]"
            },
            {
              "internalType": "string",
              "name": "imageHash",
              "type": "string"
            },
            {
              "internalType": "uint256",
              "name": "timestamp",
              "type": "uint256"
            },
            {
              "internalType": "address",
              "name": "reporter",
              "type": "address"
            },
            {
              "internalType": "enum ReefMonitor.DataSource",
              "name": "source",
              "type": "uint8"
            }
          ],
          "internalType": "struct ReefMonitor.ReefData[]",
          "name": "",
          "type": "tuple[]"
        }
      ],
      "stateMutability": "view",
      "type": "function"
    },
    {
      "inputs": [],
      "name": "getReefStatusCounts",
      "outputs": [
        {
          "internalType": "uint256",
          "name": "critical",
          "type": "uint256"
        },
        {
          "internalType": "uint256",
          "name": "poor",
          "type": "uint256"
        },
        {
          "internalType": "uint256",
          "name": "fair",
          "type": "uint256"
        },
        {
          "internalType": "uint256",
          "name": "good",
          "type": "uint256"
        },
        {
          "internalType": "uint256",
          "name": "excellent",
          "type": "uint256"
        }
      ],
      "stateMutability": "view",
      "type": "function"
    },
    {
      "inputs": [],
      "name": "owner",
      "outputs": [
        {
          "internalType": "address",
          "name": "",
          "type": "address"
        }
      ],
      "stateMutability": "view",
      "type": "function"
    },
    {
      "inputs": [
        {
          "internalType": "string",
          "name": "",
          "type": "string"
        }
      ],
      "name": "reefData",
      "outputs": [
        {
          "internalType": "string",
          "name": "reefId",
          "type": "string"
        },
        {
          "internalType": "string",
          "name": "location",
          "type": "string"
        },
        {
          "internalType": "uint256",
          "name": "healthScore",
          "type": "uint256"
        },
        {
          "internalType": "uint256",
          "name": "temperature",
          "type": "uint256"
        },
        {
          "internalType": "uint256",
          "name": "phLevel",
          "type": "uint256"
        },
        {
          "internalType": "uint256",
          "name": "coralCoverage",
          "type": "uint256"
        },
        {
          "internalType": "string",
          "name": "imageHash",
          "type": "string"
        },
        {
          "internalType": "uint256",
          "name": "timestamp",
          "type": "uint256"
        },
        {
          "internalType": "address",
          "name": "reporter",
          "type": "address"
        },
        {
          "internalType": "enum ReefMonitor.DataSource",
          "name": "source",
          "type": "uint8"
        }
      ],
      "stateMutability": "view",
      "type": "function"
    },
    {
      "inputs": [
        {
          "internalType": "string",
          "name": "",
          "type": "string"
        },
        {
          "internalType": "uint256",
          "name": "",
          "type": "uint256"
        }
      ],
      "name": "reefHistory",
      "outputs": [
        {
          "internalType": "string",
          "name": "reefId",
          "type": "string"
        },
        {
          "internalType": "string",
          "name": "location",
          "type": "string"
        },
        {
          "internalType": "uint256",
          "name": "healthScore",
          "type": "uint256"
        },
        {
          "internalType": "uint256",
          "name": "temperature",
          "type": "uint256"
        },
        {
          "internalType": "uint256",
          "name": "phLevel",
          "type": "uint256"
        },
        {
          "internalType": "uint256",
          "name": "coralCoverage",
          "type": "uint256"
        },
        {
          "internalType": "string",
          "name": "imageHash",
          "type": "string"
        },
        {
          "internalType": "uint256",
          "name": "timestamp",
          "type": "uint256"
        },
        {
          "internalType": "address",
          "name": "reporter",
          "type": "address"
        },
        {
          "internalType": "enum ReefMonitor.DataSource",
          "name": "source",
          "type": "uint8"
        }
      ],
      "stateMutability": "view",
      "type": "function"
    },
    {
      "inputs": [
        {
          "internalType": "uint256",
          "name": "",
          "type": "uint256"
        }
      ],
      "name": "reefIds",
      "outputs": [
        {
          "internalType": "string",
          "name": "",
          "type": "string"
        }
      ],
      "stateMutability": "view",
      "type": "function"
    },
    {
      "inputs": [],
      "name": "renounceOwnership",
      "outputs": [],
      "stateMutability": "nonpayable",
      "type": "function"
    },
    {
      "inputs": [
        {
          "internalType": "address",
          "name": "provider",
          "type": "address"
        }
      ],
      "name": "revokeProvider",
      "outputs": [],
      "stateMutability": "nonpayable",
      "type": "function"
    },
    {
      "inputs": [
        {
          "internalType": "string",
          "name": "_reefId",
          "type": "string"
        },
        {
          "internalType": "string",
          "name": "_location",
          "type": "string"
        },
        {
          "internalType": "uint256",
          "name": "_healthScore",
          "type": "uint256"
        },
        {
          "internalType": "uint256",
          "name": "_temperature",
          "type": "uint256"
        },
        {
          "internalType": "uint256",
          "name": "_phLevel",
          "type": "uint256"
        },
        {
          "internalType": "uint256",
          "name": "_coralCoverage",
          "type": "uint256"
        },
        {
          "internalType": "string[]",
          "name": "_speciesDetected",
          "type": "string[]"
        },
        {
          "internalType": "string",
          "name": "_imageHash",
          "type": "string"
        },
        {
          "internalType": "enum ReefMonitor.DataSource",
          "name": "_source",
          "type": "uint8"
        }
      ],
      "name": "submitReefData",
      "outputs": [],
      "stateMutability": "nonpayable",
      "type": "function"
    },
    {
      "inputs": [],
      "name": "totalDataPoints",
      "outputs": [
        {
          "internalType": "uint256",
          "name": "",
          "type": "uint256"
        }
      ],
      "stateMutability": "view",
      "type": "function"
    },
    {
      "inputs": [],
      "name": "totalReefs",
      "outputs": [
        {
          "internalType": "uint256",
          "name": "",
          "type": "uint256"
        }
      ],
      "stateMutability": "view",
      "type": "function"
    },
    {
      "inputs": [
        {
          "internalType": "address",
          "name": "newOwner",
          "type": "address"
        }
      ],
      "name": "transferOwnership",
      "outputs": [],
      "stateMutability": "nonpayable",
      "type": "function"
    }
  ],
  "bytecode": "0x608060405234801561000f575f80fd5b50338061003557604051631e4fbdf760e01b81525f600482015260240160405180910390fd5b61003e81610068565b5060017f9b779b17422d0df92223018b32b4d1fa46e071723d6817e2486d003becc55f00556100b7565b5f80546001600160a01b038381166001600160a01b0319831681178455604051919092169283917f8be0079c531659141344cd1fd0a4f28419497f9722a3daafe3b4186f6b6457e09190a35050565b6123dc806100c45f395ff3fe608060405234801561000f575f80fd5b5060043610610111575f3560e01c806369dc3ae21161009e578063ac1e8b8e1161006e578063ac1e8b8e14610267578063dc4d2aec1461027a578063e75b7573146102aa578063eeaddb46146102bd578063f2fde38b146102dd575f80fd5b806369dc3ae214610200578063715018a6146102325780638da5cb5b1461023a578063a413344414610254575f80fd5b806316fab469116100e457806316fab46914610179578063177e2139146101995780633b7acf5e146101c257806357afafea146101cb57806360429fc2146101e0575f80fd5b80630c2278d314610115578063112ea2621461013157806311ffbc671461014657806314fd533b14610166575b5f80fd5b61011e60065481565b6040519081526020015b60405180910390f35b61014461013f366004611919565b6102f0565b005b610159610154366004611939565b610343565b604051610128919061199d565b610144610174366004611b46565b6103e9565b61018c610187366004611939565b6105da565b6040516101289190611d11565b6101ac6101a7366004611d25565b610626565b6040516101289a99989796959493929190611d6f565b61011e60055481565b6101d361081e565b6040516101289190611e52565b6101f36101ee366004611d25565b6108f2565b6040516101289190611f38565b61022261020e366004611919565b60036020525f908152604090205460ff1681565b6040519015158152602001610128565b610144610c6b565b5f546040516001600160a01b039091168152602001610128565b6101ac610262366004611f9a565b610c7e565b610144610275366004611919565b610cc8565b610282610d18565b604080519586526020860194909452928401919091526060830152608082015260a001610128565b6101446102b8366004611fdc565b610e3a565b6102d06102cb366004611d25565b61137f565b60405161012891906120b7565b6101446102eb366004611919565b6116b4565b6102f86116f1565b6001600160a01b0381165f81815260036020526040808220805460ff19166001179055517f30aad5ec8e5ced8ded7e45959f743df649dbc96638aa1a73a56bb0c4e25aab3a9190a250565b60048181548110610352575f80fd5b905f5260205f20015f91509050805461036a906120c9565b80601f0160208091040260200160405190810160405280929190818152602001828054610396906120c9565b80156103e15780601f106103b8576101008083540402835291602001916103e1565b820191905f5260205f20905b8154815290600101906020018083116103c457829003601f168201915b505050505081565b335f9081526003602052604090205460ff168061040f57505f546001600160a01b031633145b6104515760405162461bcd60e51b815260206004820152600e60248201526d139bdd08185d5d1a1bdc9a5e995960921b60448201526064015b60405180910390fd5b5f5b81518110156105d657306001600160a01b031663e75b757383838151811061047d5761047d612101565b60200260200101515f015184848151811061049a5761049a612101565b6020026020010151602001518585815181106104b8576104b8612101565b6020026020010151604001518686815181106104d6576104d6612101565b6020026020010151606001518787815181106104f4576104f4612101565b60200260200101516080015188888151811061051257610512612101565b602002602001015160a0015189898151811061053057610530612101565b602002602001015160c001518a8a8151811061054e5761054e612101565b602002602001015160e001518b8b8151811061056c5761056c612101565b602002602001015161014001516040518a63ffffffff1660e01b815260040161059d99989796959493929190612115565b5f604051808303815f87803b1580156105b4575f80fd5b505af11580156105c6573d5f803e3d5ffd5b5050600190920191506104539050565b5050565b5f60148210156105eb57505f919050565b60288210156105fc57506001919050565b603c82101561060d57506002919050565b605082101561061e57506003919050565b506004919050565b805160208183018101805160018252928201919093012091528054819061064c906120c9565b80601f0160208091040260200160405190810160405280929190818152602001828054610678906120c9565b80156106c35780601f1061069a576101008083540402835291602001916106c3565b820191905f5260205f20905b8154815290600101906020018083116106a657829003601f168201915b5050505050908060010180546106d8906120c9565b80601f0160208091040260200160405190810160405280929190818152602001828054610704906120c9565b801561074f5780601f106107265761010080835404028352916020019161074f565b820191905f5260205f20905b81548152906001019060200180831161073257829003601f168201915b50505050509080600201549080600301549080600401549080600501549080600701805461077c906120c9565b80601f01602080910402602001604051908101604052809291908181526020018280546107a8906120c9565b80156107f35780601f106107ca576101008083540402835291602001916107f3565b820191905f5260205f20905b8154815290600101906020018083116107d657829003601f168201915b5050505060088301546009909301549192916001600160a01b0381169150600160a01b900460ff168a565b60606004805480602002602001604051908101604052809291908181526020015f905b828210156108e9578382905f5260205f2001805461085e906120c9565b80601f016020809104026020016040519081016040528092919081815260200182805461088a906120c9565b80156108d55780601f106108ac576101008083540402835291602001916108d5565b820191905f5260205f20905b8154815290600101906020018083116108b857829003601f168201915b505050505081526020019060010190610841565b50505050905090565b6060600282604051610904919061219b565b9081526020016040518091039020805480602002602001604051908101604052809291908181526020015f905b82821015610c60578382905f5260205f2090600a0201604051806101600160405290815f82018054610962906120c9565b80601f016020809104026020016040519081016040528092919081815260200182805461098e906120c9565b80156109d95780601f106109b0576101008083540402835291602001916109d9565b820191905f5260205f20905b8154815290600101906020018083116109bc57829003601f168201915b505050505081526020016001820180546109f2906120c9565b80601f0160208091040260200160405190810160405280929190818152602001828054610a1e906120c9565b8015610a695780601f10610a4057610100808354040283529160200191610a69565b820191905f5260205f20905b815481529060010190602001808311610a4c57829003601f168201915b505050505081526020016002820154815260200160038201548152602001600482015481526020016005820154815260200160068201805480602002602001604051908101604052809291908181526020015f905b82821015610b66578382905f5260205f20018054610adb906120c9565b80601f0160208091040260200160405190810160405280929190818152602001828054610b07906120c9565b8015610b525780601f10610b2957610100808354040283529160200191610b52565b820191905f5260205f20905b815481529060010190602001808311610b3557829003601f168201915b505050505081526020019060010190610abe565b505050508152602001600782018054610b7e906120c9565b80601f0160208091040260200160405190810160405280929190818152602001828054610baa906120c9565b8015610bf55780601f10610bcc57610100808354040283529160200191610bf5565b820191905f5260205f20905b815481529060010190602001808311610bd857829003601f168201915b50505091835250506008820154602082015260098201546001600160a01b0381166040830152606090910190600160a01b900460ff166003811115610c3c57610c3c611ce9565b6003811115610c4d57610c4d611ce9565b8152505081526020019060010190610931565b505050509050919050565b610c736116f1565b610c7c5f61171d565b565b81516020818401810180516002825292820191850191909120919052805482908110610ca8575f80fd5b905f5260205f2090600a02015f9150915050805f01805461064c906120c9565b610cd06116f1565b6001600160a01b0381165f81815260036020526040808220805460ff19169055517f0b412438a02a65571b6108c0f39b86056b70529259c52f0a788217c320928c4a9190a250565b5f80808080805b600454811015610e32575f610d6e600160048481548110610d4257610d42612101565b905f5260205f2001604051610d5791906121b6565b9081526020016040518091039020600201546105da565b90505f816004811115610d8357610d83611ce9565b03610d9a5786610d9281612228565b975050610e29565b6001816004811115610dae57610dae611ce9565b03610dc55785610dbd81612228565b965050610e29565b6002816004811115610dd957610dd9611ce9565b03610df05784610de881612228565b955050610e29565b6003816004811115610e0457610e04611ce9565b03610e1b5783610e1381612228565b945050610e29565b82610e2581612228565b9350505b50600101610d1f565b509091929394565b335f9081526003602052604090205460ff1680610e6057505f546001600160a01b031633145b610e9d5760405162461bcd60e51b815260206004820152600e60248201526d139bdd08185d5d1a1bdc9a5e995960921b6044820152606401610448565b610ea561176c565b6064871115610ef65760405162461bcd60e51b815260206004820152601a60248201527f4865616c74682073636f7265206d75737420626520302d3130300000000000006044820152606401610448565b610578851115610f5b5760405162461bcd60e51b815260206004820152602a60248201527f7048206c6576656c206d75737420626520302d313420287831303020666f7220604482015269707265636973696f6e2960b01b6064820152608401610448565b5f6040518061016001604052808b81526020018a8152602001898152602001888152602001878152602001868152602001858152602001848152602001428152602001336001600160a01b03168152602001836003811115610fbf57610fbf611ce9565b81525090508060018b604051610fd5919061219b565b90815260405190819003602001902081518190610ff29082612298565b50602082015160018201906110079082612298565b5060408201516002820155606082015160038201556080820151600482015560a0820151600582015560c0820151805161104b9160068401916020909101906117dc565b5060e082015160078201906110609082612298565b5061010082015160088201556101208201516009820180546001600160a01b039092166001600160a01b0319831681178255610140850151926001600160a81b03191617600160a01b8360038111156110bb576110bb611ce9565b021790555090505060028a6040516110d3919061219b565b9081526040516020918190038201902080546001810182555f91825291902082518392600a029091019081906111099082612298565b506020820151600182019061111e9082612298565b5060408201516002820155606082015160038201556080820151600482015560a0820151600582015560c082015180516111629160068401916020909101906117dc565b5060e082015160078201906111779082612298565b5061010082015160088201556101208201516009820180546001600160a01b039092166001600160a01b0319831681178255610140850151926001600160a81b03191617600160a01b8360038111156111d2576111d2611ce9565b0217905550505060028a6040516111e9919061219b565b9081526040519081900360200190205460010361125157600480546001810182555f919091527f8a35acfbc15ff81a39ae7d344fd709f28e8600b4aa8c65c6b64bfe7fe36bd19b0161123b8b82612298565b5060058054905f61124b83612228565b91905055505b60068054905f61126083612228565b91905055505f61126f896105da565b90505f81600481111561128457611284611ce9565b14806112a15750600181600481111561129f5761129f611ce9565b145b156112f6578a6040516112b4919061219b565b60405180910390207fb2fad92913332aa6e1ba6d1a1666fd3be2002f170f601e6de8833fa7ac2c110282426040516112ed929190612358565b60405180910390a25b8a604051611304919061219b565b60405180910390207f73639e67cd3e2e6505368ba01b8c117cbc607baaa19d01f2343e4b197658d6698a4233876040516113419493929190612373565b60405180910390a2505061137460017f9b779b17422d0df92223018b32b4d1fa46e071723d6817e2486d003becc55f0055565b505050505050505050565b611387611830565b600182604051611397919061219b565b9081526020016040518091039020604051806101600160405290815f820180546113c0906120c9565b80601f01602080910402602001604051908101604052809291908181526020018280546113ec906120c9565b80156114375780601f1061140e57610100808354040283529160200191611437565b820191905f5260205f20905b81548152906001019060200180831161141a57829003601f168201915b50505050508152602001600182018054611450906120c9565b80601f016020809104026020016040519081016040528092919081815260200182805461147c906120c9565b80156114c75780601f1061149e576101008083540402835291602001916114c7565b820191905f5260205f20905b8154815290600101906020018083116114aa57829003601f168201915b505050505081526020016002820154815260200160038201548152602001600482015481526020016005820154815260200160068201805480602002602001604051908101604052809291908181526020015f905b828210156115c4578382905f5260205f20018054611539906120c9565b80601f0160208091040260200160405190810160405280929190818152602001828054611565906120c9565b80156115b05780601f10611587576101008083540402835291602001916115b0565b820191905f5260205f20905b81548152906001019060200180831161159357829003601f168201915b50505050508152602001906001019061151c565b5050505081526020016007820180546115dc906120c9565b80601f0160208091040260200160405190810160405280929190818152602001828054611608906120c9565b80156116535780601f1061162a57610100808354040283529160200191611653565b820191905f5260205f20905b81548152906001019060200180831161163657829003601f168201915b50505091835250506008820154602082015260098201546001600160a01b0381166040830152606090910190600160a01b900460ff16600381111561169a5761169a611ce9565b60038111156116ab576116ab611ce9565b90525092915050565b6116bc6116f1565b6001600160a01b0381166116e557604051631e4fbdf760e01b81525f6004820152602401610448565b6116ee8161171d565b50565b5f546001600160a01b03163314610c7c5760405163118cdaa760e01b8152336004820152602401610448565b5f80546001600160a01b038381166001600160a01b0319831681178455604051919092169283917f8be0079c531659141344cd1fd0a4f28419497f9722a3daafe3b4186f6b6457e09190a35050565b61177461179a565b60027f9b779b17422d0df92223018b32b4d1fa46e071723d6817e2486d003becc55f0055565b7f9b779b17422d0df92223018b32b4d1fa46e071723d6817e2486d003becc55f0054600203610c7c57604051633ee5aeb560e01b815260040160405180910390fd5b828054828255905f5260205f20908101928215611820579160200282015b8281111561182057825182906118109082612298565b50916020019190600101906117fa565b5061182c92915061189c565b5090565b60405180610160016040528060608152602001606081526020015f81526020015f81526020015f81526020015f815260200160608152602001606081526020015f81526020015f6001600160a01b031681526020015f600381111561189757611897611ce9565b905290565b8082111561182c575f6118af82826118b8565b5060010161189c565b5080546118c4906120c9565b5f825580601f106118d3575050565b601f0160209004905f5260205f20908101906116ee91905b8082111561182c575f81556001016118eb565b80356001600160a01b0381168114611914575f80fd5b919050565b5f60208284031215611929575f80fd5b611932826118fe565b9392505050565b5f60208284031215611949575f80fd5b5035919050565b5f5b8381101561196a578181015183820152602001611952565b50505f910152565b5f8151808452611989816020860160208601611950565b601f01601f19169290920160200192915050565b602081525f6119326020830184611972565b634e487b7160e01b5f52604160045260245ffd5b604051610160810167ffffffffffffffff811182821017156119e7576119e76119af565b60405290565b604051601f8201601f1916810167ffffffffffffffff81118282101715611a1657611a166119af565b604052919050565b5f67ffffffffffffffff821115611a3757611a376119af565b5060051b60200190565b5f82601f830112611a50575f80fd5b813567ffffffffffffffff811115611a6a57611a6a6119af565b611a7d601f8201601f19166020016119ed565b818152846020838601011115611a91575f80fd5b816020850160208301375f918101602001919091529392505050565b5f82601f830112611abc575f80fd5b81356020611ad1611acc83611a1e565b6119ed565b82815260059290921b84018101918181019086841115611aef575f80fd5b8286015b84811015611b2d57803567ffffffffffffffff811115611b11575f80fd5b611b1f8986838b0101611a41565b845250918301918301611af3565b509695505050505050565b803560048110611914575f80fd5b5f6020808385031215611b57575f80fd5b823567ffffffffffffffff80821115611b6e575f80fd5b818501915085601f830112611b81575f80fd5b8135611b8f611acc82611a1e565b81815260059190911b83018401908481019088831115611bad575f80fd5b8585015b83811015611cdc57803585811115611bc7575f80fd5b8601610160818c03601f1901811315611bde575f80fd5b611be66119c3565b8983013588811115611bf6575f80fd5b611c048e8c83870101611a41565b825250604083013588811115611c18575f80fd5b611c268e8c83870101611a41565b8b83015250606083013560408201526080830135606082015260a0830135608082015260c083013560a082015260e083013588811115611c64575f80fd5b611c728e8c83870101611aad565b60c0830152506101008084013589811115611c8b575f80fd5b611c998f8d83880101611a41565b60e08401525061012080850135828401526101409150611cba8286016118fe565b90830152611cc9848401611b38565b9082015285525050918601918601611bb1565b5098975050505050505050565b634e487b7160e01b5f52602160045260245ffd5b60058110611d0d57611d0d611ce9565b9052565b60208101611d1f8284611cfd565b92915050565b5f60208284031215611d35575f80fd5b813567ffffffffffffffff811115611d4b575f80fd5b611d5784828501611a41565b949350505050565b60048110611d0d57611d0d611ce9565b5f610140808352611d828184018e611972565b90508281036020840152611d96818d611972565b90508a60408401528960608401528860808401528760a084015282810360c0840152611dc28188611972565b60e084018790526001600160a01b0386166101008501529150611deb9050610120830184611d5f565b9b9a5050505050505050505050565b5f8282518085526020808601955060208260051b840101602086015f5b84811015611e4557601f19868403018952611e33838351611972565b98840198925090830190600101611e17565b5090979650505050505050565b602081525f6119326020830184611dfa565b5f6101608251818552611e7982860182611972565b91505060208301518482036020860152611e938282611972565b91505060408301516040850152606083015160608501526080830151608085015260a083015160a085015260c083015184820360c0860152611ed58282611dfa565b91505060e083015184820360e0860152611eef8282611972565b91505061010080840151818601525061012080840151611f19828701826001600160a01b03169052565b505061014080840151611f2e82870182611d5f565b5090949350505050565b5f60208083016020845280855180835260408601915060408160051b8701019250602087015f5b82811015611f8d57603f19888603018452611f7b858351611e64565b94509285019290850190600101611f5f565b5092979650505050505050565b5f8060408385031215611fab575f80fd5b823567ffffffffffffffff811115611fc1575f80fd5b611fcd85828601611a41565b95602094909401359450505050565b5f805f805f805f805f6101208a8c031215611ff5575f80fd5b893567ffffffffffffffff8082111561200c575f80fd5b6120188d838e01611a41565b9a5060208c013591508082111561202d575f80fd5b6120398d838e01611a41565b995060408c0135985060608c0135975060808c0135965060a08c0135955060c08c013591508082111561206a575f80fd5b6120768d838e01611aad565b945060e08c013591508082111561208b575f80fd5b506120988c828d01611a41565b9250506120a86101008b01611b38565b90509295985092959850929598565b602081525f6119326020830184611e64565b600181811c908216806120dd57607f821691505b6020821081036120fb57634e487b7160e01b5f52602260045260245ffd5b50919050565b634e487b7160e01b5f52603260045260245ffd5b5f6101208083526121288184018d611972565b9050828103602084015261213c818c611972565b90508960408401528860608401528760808401528660a084015282810360c08401526121688187611dfa565b905082810360e084015261217c8186611972565b91505061218d610100830184611d5f565b9a9950505050505050505050565b5f82516121ac818460208701611950565b9190910192915050565b5f8083546121c3816120c9565b600182811680156121db57600181146121f05761221c565b60ff198416875282151583028701945061221c565b875f526020805f205f5b858110156122135781548a8201529084019082016121fa565b50505082870194505b50929695505050505050565b5f6001820161224557634e487b7160e01b5f52601160045260245ffd5b5060010190565b601f82111561229357805f5260205f20601f840160051c810160208510156122715750805b601f840160051c820191505b81811015612290575f815560010161227d565b50505b505050565b815167ffffffffffffffff8111156122b2576122b26119af565b6122c6816122c084546120c9565b8461224c565b602080601f8311600181146122f9575f84156122e25750858301515b5f19600386901b1c1916600185901b178555612350565b5f85815260208120601f198616915b8281101561232757888601518255948401946001909101908401612308565b508582101561234457878501515f19600388901b60f8161c191681555b505060018460011b0185555b505050505050565b604081016123668285611cfd565b8260208301529392505050565b848152602081018490526001600160a01b03831660408201526080810161239d6060830184611d5f565b9594505050505056fea26469706673582212208be4663ddb4f95535b61c0662e1aecc569c65bb7d5984b789d2373f475a2874764736f6c63430008180033",
  "linkReferences": {},
  "deployedLinkReferences": {}
}