{
  "_format": "hh-sol-artifact-1",
  "contractName": "GuardianRewards",
  "sourceName": "contracts/GuardianRewards.sol",
  "abi": [
    {
      "inputs": [
        {
          "internalType": "address",
          "name": "_rewardToken",
          "type": "address"
        },
        {
          "internalType": "bool",
          "name": "_useNativeToken",
          "type": "bool"
        }
      ],
      "stateMutability": "nonpayable",
      "type": "constructor"
    },
    {
      "inputs": [
        {
          "internalType": "address",
          "name": "owner",
          "type": "address"
        }
      ],
      "name": "OwnableInvalidOwner",
      "type": "error"
    },
    {
      "inputs": [
        {
          "internalType": "address",
          "name": "account",
          "type": "address"
        }
      ],
      "name": "OwnableUnauthorizedAccount",
      "type": "error"
    },
    {
      "inputs": [],
      "name": "ReentrancyGuardReentrantCall",
      "type": "error"
    },
    {
      "anonymous": false,
      "inputs": [
        {
          "indexed": true,
          "internalType": "address",
          "name": "guardian",
          "type": "address"
        },
        {
          "indexed": false,
          "internalType": "string",
          "name": "achievement",
          "type": "string"
        }
      ],
      "name": "AchievementUnlocked",
      "type": "event"
    },
    {
      "anonymous": false,
      "inputs": [
        {
          "indexed": true,
          "internalType": "address",
          "name": "guardian",
          "type": "address"
        },
        {
          "indexed": false,
          "internalType": "enum GuardianRewards.ActionType",
          "name": "actionType",
          "type": "uint8"
        },
        {
          "indexed": false,
          "internalType": "uint256",
          "name": "points",
          "type": "uint256"
        },
        {
          "indexed": false,
          "internalType": "uint256",
          "name": "reward",
          "type": "uint256"
        },
        {
          "indexed": false,
          "internalType": "uint256",
          "name": "timestamp",
          "type": "uint256"
        }
      ],
      "name": "ActionCompleted",
      "type": "event"
    },
    {
      "anonymous": false,
      "inputs": [
        {
          "indexed": true,
          "internalType": "address",
          "name": "guardian",
          "type": "address"
        },
        {
          "indexed": false,
          "internalType": "uint256",
          "name": "timestamp",
          "type": "uint256"
        }
      ],
      "name": "GuardianRegistered",
      "type": "event"
    },
    {
      "anonymous": false,
      "inputs": [
        {
          "indexed": true,
          "internalType": "address",
          "name": "previousOwner",
          "type": "address"
        },
        {
          "indexed": true,
          "internalType": "address",
          "name": "newOwner",
          "type": "address"
        }
      ],
      "name": "OwnershipTransferred",
      "type": "event"
    },
    {
      "anonymous": false,
      "inputs": [
        {
          "indexed": true,
          "internalType": "address",
          "name": "referrer",
          "type": "address"
        },
        {
          "indexed": true,
          "internalType": "address",
          "name": "referee",
          "type": "address"
        }
      ],
      "name": "ReferralCompleted",
      "type": "event"
    },
    {
      "anonymous": false,
      "inputs": [
        {
          "indexed": true,
          "internalType": "address",
          "name": "guardian",
          "type": "address"
        },
        {
          "indexed": false,
          "internalType": "uint256",
          "name": "amount",
          "type": "uint256"
        }
      ],
      "name": "Staked",
      "type": "event"
    },
    {
      "anonymous": false,
      "inputs": [
        {
          "indexed": true,
          "internalType": "address",
          "name": "guardian",
          "type": "address"
        },
        {
          "indexed": false,
          "internalType": "enum GuardianRewards.BadgeTier",
          "name": "newTier",
          "type": "uint8"
        }
      ],
      "name": "TierUpgraded",
      "type": "event"
    },
    {
      "anonymous": false,
      "inputs": [
        {
          "indexed": true,
          "internalType": "address",
          "name": "guardian",
          "type": "address"
        },
        {
          "indexed": false,
          "internalType": "uint256",
          "name": "amount",
          "type": "uint256"
        }
      ],
      "name": "Unstaked",
      "type": "event"
    },
    {
      "inputs": [],
      "name": "MIN_STAKE_AMOUNT",
      "outputs": [
        {
          "internalType": "uint256",
          "name": "",
          "type": "uint256"
        }
      ],
      "stateMutability": "view",
      "type": "function"
    },
    {
      "inputs": [],
      "name": "STAKE_LOCK_PERIOD",
      "outputs": [
        {
          "internalType": "uint256",
          "name": "",
          "type": "uint256"
        }
      ],
      "stateMutability": "view",
      "type": "function"
    },
    {
      "inputs": [
        {
          "internalType": "enum GuardianRewards.ActionType",
          "name": "",
          "type": "uint8"
        }
      ],
      "name": "actionRewards",
      "outputs": [
        {
          "internalType": "uint256",
          "name": "basePoints",
          "type": "uint256"
        },
        {
          "internalType": "uint256",
          "name": "tokenReward",
          "type": "uint256"
        },
        {
          "internalType": "uint256",
          "name": "cooldownPeriod",
          "type": "uint256"
        }
      ],
      "stateMutability": "view",
      "type": "function"
    },
    {
      "inputs": [
        {
          "internalType": "address",
          "name": "_verifier",
          "type": "address"
        }
      ],
      "name": "authorizeVerifier",
      "outputs": [],
      "stateMutability": "nonpayable",
      "type": "function"
    },
    {
      "inputs": [
        {
          "internalType": "address",
          "name": "",
          "type": "address"
        }
      ],
      "name": "authorizedVerifiers",
      "outputs": [
        {
          "internalType": "bool",
          "name": "",
          "type": "bool"
        }
      ],
      "stateMutability": "view",
      "type": "function"
    },
    {
      "inputs": [
        {
          "internalType": "uint256",
          "name": "_points",
          "type": "uint256"
        }
      ],
      "name": "calculateTier",
      "outputs": [
        {
          "internalType": "enum GuardianRewards.BadgeTier",
          "name": "",
          "type": "uint8"
        }
      ],
      "stateMutability": "view",
      "type": "function"
    },
    {
      "inputs": [],
      "name": "claimStakingRewards",
      "outputs": [],
      "stateMutability": "nonpayable",
      "type": "function"
    },
    {
      "inputs": [
        {
          "internalType": "enum GuardianRewards.ActionType",
          "name": "_actionType",
          "type": "uint8"
        }
      ],
      "name": "completeAction",
      "outputs": [],
      "stateMutability": "nonpayable",
      "type": "function"
    },
    {
      "inputs": [],
      "name": "emergencyWithdraw",
      "outputs": [],
      "stateMutability": "nonpayable",
      "type": "function"
    },
    {
      "inputs": [],
      "name": "fundRewardPool",
      "outputs": [],
      "stateMutability": "payable",
      "type": "function"
    },
    {
      "inputs": [
        {
          "internalType": "address",
          "name": "_guardian",
          "type": "address"
        }
      ],
      "name": "getGuardianAchievements",
      "outputs": [
        {
          "internalType": "string[]",
          "name": "",
          "type": "string[]"
        }
      ],
      "stateMutability": "view",
      "type": "function"
    },
    {
      "inputs": [
        {
          "internalType": "address",
          "name": "_guardian",
          "type": "address"
        }
      ],
      "name": "getGuardianStats",
      "outputs": [
        {
          "internalType": "uint256",
          "name": "totalPoints",
          "type": "uint256"
        },
        {
          "internalType": "uint256",
          "name": "actionsCompleted",
          "type": "uint256"
        },
        {
          "internalType": "uint256",
          "name": "stakedAmount",
          "type": "uint256"
        },
        {
          "internalType": "enum GuardianRewards.BadgeTier",
          "name": "currentTier",
          "type": "uint8"
        },
        {
          "internalType": "uint256",
          "name": "referralCount_",
          "type": "uint256"
        }
      ],
      "stateMutability": "view",
      "type": "function"
    },
    {
      "inputs": [
        {
          "internalType": "address[]",
          "name": "_guardians",
          "type": "address[]"
        }
      ],
      "name": "getLeaderboard",
      "outputs": [
        {
          "internalType": "address[]",
          "name": "rankedAddresses",
          "type": "address[]"
        },
        {
          "internalType": "uint256[]",
          "name": "rankedPoints",
          "type": "uint256[]"
        }
      ],
      "stateMutability": "view",
      "type": "function"
    },
    {
      "inputs": [
        {
          "internalType": "address",
          "name": "",
          "type": "address"
        }
      ],
      "name": "guardians",
      "outputs": [
        {
          "internalType": "uint256",
          "name": "totalPoints",
          "type": "uint256"
        },
        {
          "internalType": "uint256",
          "name": "actionsCompleted",
          "type": "uint256"
        },
        {
          "internalType": "uint256",
          "name": "stakedAmount",
          "type": "uint256"
        },
        {
          "internalType": "uint256",
          "name": "stakingStartTime",
          "type": "uint256"
        },
        {
          "internalType": "enum GuardianRewards.BadgeTier",
          "name": "currentTier",
          "type": "uint8"
        },
        {
          "internalType": "bool",
          "name": "isActive",
          "type": "bool"
        }
      ],
      "stateMutability": "view",
      "type": "function"
    },
    {
      "inputs": [
        {
          "internalType": "address",
          "name": "",
          "type": "address"
        },
        {
          "internalType": "enum GuardianRewards.ActionType",
          "name": "",
          "type": "uint8"
        }
      ],
      "name": "lastActionTime",
      "outputs": [
        {
          "internalType": "uint256",
          "name": "",
          "type": "uint256"
        }
      ],
      "stateMutability": "view",
      "type": "function"
    },
    {
      "inputs": [],
      "name": "owner",
      "outputs": [
        {
          "internalType": "address",
          "name": "",
          "type": "address"
        }
      ],
      "stateMutability": "view",
      "type": "function"
    },
    {
      "inputs": [
        {
          "internalType": "address",
          "name": "",
          "type": "address"
        }
      ],
      "name": "referralCount",
      "outputs": [
        {
          "internalType": "uint256",
          "name": "",
          "type": "uint256"
        }
      ],
      "stateMutability": "view",
      "type": "function"
    },
    {
      "inputs": [
        {
          "internalType": "address",
          "name": "",
          "type": "address"
        }
      ],
      "name": "referredBy",
      "outputs": [
        {
          "internalType": "address",
          "name": "",
          "type": "address"
        }
      ],
      "stateMutability": "view",
      "type": "function"
    },
    {
      "inputs": [
        {
          "internalType": "address",
          "name": "_referrer",
          "type": "address"
        }
      ],
      "name": "registerGuardian",
      "outputs": [],
      "stateMutability": "nonpayable",
      "type": "function"
    },
    {
      "inputs": [],
      "name": "renounceOwnership",
      "outputs": [],
      "stateMutability": "nonpayable",
      "type": "function"
    },
    {
      "inputs": [
        {
          "internalType": "address",
          "name": "_verifier",
          "type": "address"
        }
      ],
      "name": "revokeVerifier",
      "outputs": [],
      "stateMutability": "nonpayable",
      "type": "function"
    },
    {
      "inputs": [],
      "name": "rewardToken",
      "outputs": [
        {
          "internalType": "contract IERC20",
          "name": "",
          "type": "address"
        }
      ],
      "stateMutability": "view",
      "type": "function"
    },
    {
      "inputs": [
        {
          "internalType": "enum GuardianRewards.ActionType",
          "name": "_actionType",
          "type": "uint8"
        },
        {
          "internalType": "uint256",
          "name": "_basePoints",
          "type": "uint256"
        },
        {
          "internalType": "uint256",
          "name": "_tokenReward",
          "type": "uint256"
        },
        {
          "internalType": "uint256",
          "name": "_cooldown",
          "type": "uint256"
        }
      ],
      "name": "setActionReward",
      "outputs": [],
      "stateMutability": "nonpayable",
      "type": "function"
    },
    {
      "inputs": [],
      "name": "stakeForReef",
      "outputs": [],
      "stateMutability": "payable",
      "type": "function"
    },
    {
      "inputs": [
        {
          "internalType": "uint256",
          "name": "",
          "type": "uint256"
        }
      ],
      "name": "tierThresholds",
      "outputs": [
        {
          "internalType": "uint256",
          "name": "",
          "type": "uint256"
        }
      ],
      "stateMutability": "view",
      "type": "function"
    },
    {
      "inputs": [
        {
          "internalType": "address",
          "name": "newOwner",
          "type": "address"
        }
      ],
      "name": "transferOwnership",
      "outputs": [],
      "stateMutability": "nonpayable",
      "type": "function"
    },
    {
      "inputs": [],
      "name": "unstake",
      "outputs": [],
      "stateMutability": "nonpayable",
      "type": "function"
    },
    {
      "inputs": [],
      "name": "useNativeToken",
      "outputs": [
        {
          "internalType": "bool",
          "name": "",
          "type": "bool"
        }
      ],
      "stateMutability": "view",
      "type": "function"
    },
    {
      "inputs": [
        {
          "internalType": "address",
          "name": "_guardian",
          "type": "address"
        },
        {
          "internalType": "enum GuardianRewards.ActionType",
          "name": "_actionType",
          "type": "uint8"
        }
      ],
      "name": "verifyAction",
      "outputs": [],
      "stateMutability": "nonpayable",
      "type": "function"
    },
    {
      "stateMutability": "payable",
      "type": "receive"
    }
  ],
  "bytecode": "0x6101206040525f6080908152606460a0526101f460c0526105dc60e05261138861010052620000329060059081620004a1565b503480156200003f575f80fd5b50604051620026c9380380620026c9833981016040819052620000629162000500565b33806200008857604051631e4fbdf760e01b81525f600482015260240160405180910390fd5b620000938162000452565b5060017f9b779b17422d0df92223018b32b4d1fa46e071723d6817e2486d003becc55f005560048054821515600160a01b026001600160a81b03199091166001600160a01b038516171790556040805160608082018352600a825266038d7ea4c680006020808401918252610e108486019081525f808052600280845295517fac33ff75c19e70fe83507db0d683fd3465c996598dc972688b7ace676c89077b5592517fac33ff75c19e70fe83507db0d683fd3465c996598dc972688b7ace676c89077c55517fac33ff75c19e70fe83507db0d683fd3465c996598dc972688b7ace676c89077d5584519283018552603283526611c37937e080009083015262015180938201939093529160016006811115620001b457620001b46200054a565b81526020019081526020015f205f820151815f01556020820151816001015560408201518160020155905050604051806060016040528060648152602001662386f26fc10000815260200162093a8081525060025f600260068111156200021f576200021f6200054a565b60068111156200023357620002336200054a565b81526020019081526020015f205f820151815f0155602082015181600101556040820151816002015590505060405180606001604052806019815260200166071afd498d000081526020015f81525060025f600360068111156200029b576200029b6200054a565b6006811115620002af57620002af6200054a565b81526020019081526020015f205f820151815f015560208201518160010155604082015181600201559050506040518060600160405280600581526020015f81526020016201518081525060025f600460068111156200031357620003136200054a565b60068111156200032757620003276200054a565b81526020019081526020015f205f820151815f0155602082015181600101556040820151816002015590505060405180606001604052806014815260200166071afd498d000081526020015f81525060025f600560068111156200038f576200038f6200054a565b6006811115620003a357620003a36200054a565b81526020019081526020015f205f820151815f01556020820151816001015560408201518160020155905050604051806060016040528060c8815260200166470de4df82000081526020015f81525060025f6006808111156200040a576200040a6200054a565b60068111156200041e576200041e6200054a565b81526020019081526020015f205f820151815f0155602082015181600101556040820151816002015590505050506200055e565b5f80546001600160a01b038381166001600160a01b0319831681178455604051919092169283917f8be0079c531659141344cd1fd0a4f28419497f9722a3daafe3b4186f6b6457e09190a35050565b8260058101928215620004d8579160200282015b82811115620004d8578251829061ffff16905591602001919060010190620004b5565b50620004e6929150620004ea565b5090565b5b80821115620004e6575f8155600101620004eb565b5f806040838503121562000512575f80fd5b82516001600160a01b038116811462000529575f80fd5b602084015190925080151581146200053f575f80fd5b809150509250929050565b634e487b7160e01b5f52602160045260245ffd5b61215d806200056c5f395ff3fe6080604052600436106101bd575f3560e01c80638232697a116100f2578063bd02a23511610092578063db74559b11610062578063db74559b146105c4578063f2fde38b146105ef578063f7c618c11461060e578063fa8b95691461062d575f80fd5b8063bd02a23514610545578063c8ecc28d14610564578063d438039014610583578063db2e21bc146105b0575f80fd5b8063a100d69d116100cd578063a100d69d14610490578063a90f8e9a146104af578063b2080234146104e3578063bb08e4001461050f575f80fd5b80638232697a146104025780638da5cb5b146104325780639a89171614610462575f80fd5b806327ed71881161015d5780633ced601b116101385780633ced601b146103b35780636b69e05b146103d2578063715018a6146103e65780637ab34da1146103fa575f80fd5b806327ed7188146103175780632c980cdf146103325780632def66201461039f575f80fd5b80631932526d116101985780631932526d146102ad57806320828339146102d157806320ad8cab146102d957806323ba33e9146102f8575f80fd5b80630633b14a146101c85780630be4d1b2146102385780630db352a814610259575f80fd5b366101c457005b5f80fd5b3480156101d3575f80fd5b5061021d6101e2366004611b18565b600160208190525f918252604090912080549181015460028201546003830154600484015460079094015492939192909160ff908116911686565b60405161022f96959493929190611b59565b60405180910390f35b348015610243575f80fd5b50610257610252366004611b18565b610659565b005b348015610264575f80fd5b50610292610273366004611ba3565b600260208190525f918252604090912080546001820154919092015483565b6040805193845260208401929092529082015260600161022f565b3480156102b8575f80fd5b506102c362278d0081565b60405190815260200161022f565b6102576107ed565b3480156102e4575f80fd5b506102576102f3366004611b18565b6107f7565b348015610303575f80fd5b50610257610312366004611bbc565b610822565b348015610322575f80fd5b506102c367016345785d8a000081565b34801561033d575f80fd5b5061038e61034c366004611b18565b6001600160a01b03165f9081526001602081815260408084208054938101546002820154600490920154600b9094529190942054929490939260ff9092169190565b60405161022f959493929190611bf2565b3480156103aa575f80fd5b5061025761089d565b3480156103be575f80fd5b506102576103cd366004611ba3565b610a74565b3480156103dd575f80fd5b50610257610ad0565b3480156103f1575f80fd5b50610257610b28565b610257610b39565b34801561040d575f80fd5b5060045461042290600160a01b900460ff1681565b604051901515815260200161022f565b34801561043d575f80fd5b505f546001600160a01b03165b6040516001600160a01b03909116815260200161022f565b34801561046d575f80fd5b5061042261047c366004611b18565b600c6020525f908152604090205460ff1681565b34801561049b575f80fd5b506102c36104aa366004611c24565b610c5b565b3480156104ba575f80fd5b5061044a6104c9366004611b18565b600a6020525f90815260409020546001600160a01b031681565b3480156104ee575f80fd5b506105026104fd366004611c24565b610c71565b60405161022f9190611c3b565b34801561051a575f80fd5b506102c3610529366004611c4f565b600360209081525f928352604080842090915290825290205481565b348015610550575f80fd5b5061025761055f366004611b18565b610cdd565b34801561056f575f80fd5b5061025761057e366004611c4f565b610d05565b34801561058e575f80fd5b506105a261059d366004611c94565b610dce565b60405161022f929190611d54565b3480156105bb575f80fd5b506102576110df565b3480156105cf575f80fd5b506102c36105de366004611b18565b600b6020525f908152604090205481565b3480156105fa575f80fd5b50610257610609366004611b18565b6111c0565b348015610619575f80fd5b5060045461044a906001600160a01b031681565b348015610638575f80fd5b5061064c610647366004611b18565b6111fa565b60405161022f9190611e19565b335f9081526001602052604090206007015460ff16156106b55760405162461bcd60e51b8152602060048201526012602482015271105b1c9958591e481c9959da5cdd195c995960721b60448201526064015b60405180910390fd5b335f90815260016020819052604090912060078101805460ff199081169093179055600401805490911690556001600160a01b0381161580159061070257506001600160a01b0381163314155b801561072857506001600160a01b0381165f9081526001602052604090206007015460ff165b156107b557335f908152600a6020908152604080832080546001600160a01b0319166001600160a01b0386169081179091558352600b909152812080549161076f83611e8f565b919050555061077f8160036112e7565b60405133906001600160a01b038316907f120a39b187a453a7e77f988aa800308f7be6fc53f0560150d271228c510a678f905f90a35b60405142815233907f9da5e347c0fc41c1bcb2bb12ef0360625d9003e9e39ab98c5dc7f8d75c2739a29060200160405180910390a250565b6107f5611611565b565b6107ff611611565b6001600160a01b03165f908152600c60205260409020805460ff19166001179055565b61082a611611565b60405180606001604052808481526020018381526020018281525060025f86600681111561085a5761085a611b31565b600681111561086b5761086b611b31565b81526020019081526020015f205f820151815f0155602082015181600101556040820151816002015590505050505050565b335f9081526001602052604090206007015460ff166108ce5760405162461bcd60e51b81526004016106ac90611ea7565b6108d661163d565b335f908152600160205260409020600281015461092c5760405162461bcd60e51b81526020600482015260146024820152734e6f207374616b6520746f20776974686472617760601b60448201526064016106ac565b62278d00816003015461093f9190611ede565b4210156109835760405162461bcd60e51b815260206004820152601260248201527114dd185ad9481cdd1a5b1b081b1bd8dad95960721b60448201526064016106ac565b61098c33611658565b6002810180545f9182905560038301829055604051909190339083908381818185875af1925050503d805f81146109de576040519150601f19603f3d011682016040523d82523d5f602084013e6109e3565b606091505b5050905080610a265760405162461bcd60e51b815260206004820152600f60248201526e151c985b9cd9995c8819985a5b1959608a1b60448201526064016106ac565b60405182815233907f0f5bb82176feb1b5e747e28471aa92156a04d9f3ab9f45f28e2d704232b93f759060200160405180910390a25050506107f560015f8051602061210883398151915255565b335f9081526001602052604090206007015460ff16610aa55760405162461bcd60e51b81526004016106ac90611ea7565b610aad61163d565b610ab733826112e7565b610acd60015f8051602061210883398151915255565b50565b335f9081526001602052604090206007015460ff16610b015760405162461bcd60e51b81526004016106ac90611ea7565b610b0961163d565b610b1233611658565b6107f560015f8051602061210883398151915255565b610b30611611565b6107f55f61172f565b335f9081526001602052604090206007015460ff16610b6a5760405162461bcd60e51b81526004016106ac90611ea7565b610b7261163d565b67016345785d8a0000341015610bca5760405162461bcd60e51b815260206004820152601860248201527f4d696e696d756d207374616b6520697320302e3120455448000000000000000060448201526064016106ac565b335f908152600160205260409020600281015415610bf057610beb33611658565b610bf7565b4260038201555b34816002015f828254610c0a9190611ede565b909155505060405134815233907f9e71bc8eea02a63969f509818f2dafb9254532904319f9dbda79b67bd34a5f3d9060200160405180910390a2506107f560015f8051602061210883398151915255565b60058160058110610c6a575f80fd5b0154905081565b5f60055b8015610cd5576005610c88600183611ef1565b60058110610c9857610c98611f04565b01548310610cc357610cab600182611ef1565b6004811115610cbc57610cbc611b31565b9392505050565b80610ccd81611f18565b915050610c75565b505f92915050565b610ce5611611565b6001600160a01b03165f908152600c60205260409020805460ff19169055565b335f908152600c602052604090205460ff1680610d2b57505f546001600160a01b031633145b610d685760405162461bcd60e51b815260206004820152600e60248201526d139bdd08185d5d1a1bdc9a5e995960921b60448201526064016106ac565b610d7061163d565b6001600160a01b0382165f9081526001602052604090206007015460ff16610daa5760405162461bcd60e51b81526004016106ac90611ea7565b610db482826112e7565b610dca60015f8051602061210883398151915255565b5050565b805160609081908067ffffffffffffffff811115610dee57610dee611c80565b604051908082528060200260200182016040528015610e17578160200160208202803683370190505b5092508067ffffffffffffffff811115610e3357610e33611c80565b604051908082528060200260200182016040528015610e5c578160200160208202803683370190505b5091505f5b81811015610f1957848181518110610e7b57610e7b611f04565b6020026020010151848281518110610e9557610e95611f04565b60200260200101906001600160a01b031690816001600160a01b03168152505060015f868381518110610eca57610eca611f04565b60200260200101516001600160a01b03166001600160a01b031681526020019081526020015f205f0154838281518110610f0657610f06611f04565b6020908102919091010152600101610e61565b505f5b610f27600183611ef1565b8110156110d8575f5b6001610f3c8385611ef1565b610f469190611ef1565b8110156110cf5783610f59826001611ede565b81518110610f6957610f69611f04565b6020026020010151848281518110610f8357610f83611f04565b602002602001015110156110c7575f848281518110610fa457610fa4611f04565b6020026020010151905084826001610fbc9190611ede565b81518110610fcc57610fcc611f04565b6020026020010151858381518110610fe657610fe6611f04565b60209081029190910101528085610ffe846001611ede565b8151811061100e5761100e611f04565b6020026020010181815250505f86838151811061102d5761102d611f04565b60200260200101519050868360016110459190611ede565b8151811061105557611055611f04565b602002602001015187848151811061106f5761106f611f04565b6001600160a01b03909216602092830291909101909101528087611094856001611ede565b815181106110a4576110a4611f04565b60200260200101906001600160a01b031690816001600160a01b03168152505050505b600101610f30565b50600101610f1c565b5050915091565b6110e7611611565b478061112e5760405162461bcd60e51b81526020600482015260166024820152754e6f2062616c616e636520746f20776974686472617760501b60448201526064016106ac565b5f80546040516001600160a01b039091169083908381818185875af1925050503d805f8114611178576040519150601f19603f3d011682016040523d82523d5f602084013e61117d565b606091505b5050905080610dca5760405162461bcd60e51b815260206004820152600f60248201526e151c985b9cd9995c8819985a5b1959608a1b60448201526064016106ac565b6111c8611611565b6001600160a01b0381166111f157604051631e4fbdf760e01b81525f60048201526024016106ac565b610acd8161172f565b6001600160a01b0381165f908152600160209081526040808320600601805482518185028101850190935280835260609492939192909184015b828210156112dc578382905f5260205f2001805461125190611f2d565b80601f016020809104026020016040519081016040528092919081815260200182805461127d90611f2d565b80156112c85780601f1061129f576101008083540402835291602001916112c8565b820191905f5260205f20905b8154815290600101906020018083116112ab57829003601f168201915b505050505081526020019060010190611234565b505050509050919050565b5f60025f8360068111156112fd576112fd611b31565b600681111561130e5761130e611b31565b81526020019081526020015f206040518060600160405290815f82015481526020016001820154815260200160028201548152505090505f816040015111801561136a5750600682600681111561136757611367611b31565b14155b1561140c576040808201516001600160a01b0385165f9081526003602052918220909184600681111561139f5761139f611b31565b60068111156113b0576113b0611b31565b81526020019081526020015f20546113c89190611ede565b42101561140c5760405162461bcd60e51b815260206004820152601260248201527120b1ba34b7b71037b71031b7b7b63237bbb760711b60448201526064016106ac565b6001600160a01b0383165f9081526001602052604081208251815491929091839190611439908490611ede565b9091555050600181018054905f61144f83611e8f565b9190505550806005015f84600681111561146b5761146b611b31565b600681111561147c5761147c611b31565b81526020019081526020015f205f81548092919061149990611e8f565b90915550506001600160a01b0384165f90815260036020526040812042918560068111156114c9576114c9611b31565b60068111156114da576114da611b31565b81526020019081526020015f20819055505f6114f8825f0154610c71565b60048084015491925060ff9091169081111561151657611516611b31565b81600481111561152857611528611b31565b111561159a5780826004015f6101000a81548160ff0219169083600481111561155357611553611b31565b0217905550846001600160a01b03167f51de07a4aba9cb8a2ff4c3c8735d01b775003c93dd3ddf5f7a2513c87dde55df826040516115919190611c3b565b60405180910390a25b6115a4858561177e565b6020830151156115bc576115bc8584602001516118f1565b846001600160a01b03167feff58c7d7dd871778d8482527cf2ca1d9a056c80df723a827f6e107a50fe991a85855f01518660200151426040516116029493929190611f65565b60405180910390a25050505050565b5f546001600160a01b031633146107f55760405163118cdaa760e01b81523360048201526024016106ac565b611645611a55565b60025f8051602061210883398151915255565b6001600160a01b0381165f908152600160205260408120600281015490910361167f575050565b5f620151808260030154426116949190611ef1565b61169e9190611f95565b9050801561172a575f6103e88360020154836116ba9190611fb4565b6116c49190611f95565b42600385015590508015611728576116dc84826118f1565b60045f5260026020527fee60d0579bcffd98e668647d59fec1ff86a7fb340ce572e844f234ae73a6918f546117119083611fb4565b835f015f8282546117229190611ede565b90915550505b505b505050565b5f80546001600160a01b038381166001600160a01b0319831681178455604051919092169283917f8be0079c531659141344cd1fd0a4f28419497f9722a3daafe3b4186f6b6457e09190a35050565b6001600160a01b0382165f908152600160208190526040909120808201549091036117d0576117d0836040518060400160405280600b81526020016a466972737420537465707360a81b815250611a84565b5f808052600582016020526040902054600a0361181457611814836040518060400160405280600b81526020016a2230ba309026b0b9ba32b960a91b815250611a84565b60015f9081526005828101602052604090912054900361185c5761185c836040518060400160405280600c81526020016b436c65616e7570204865726f60a01b815250611a84565b6001600160a01b0383165f908152600b6020526040902054600a036118ae576118ae836040518060400160405280601181526020017021b7b6b6bab734ba3c90213ab4b63232b960791b815250611a84565b670de0b6b3a764000081600201541061172a5761172a836040518060400160405280600e81526020016d2932b2b310283937ba32b1ba37b960911b815250611a84565b600454600160a01b900460ff161561199b575f826001600160a01b0316826040515f6040518083038185875af1925050503d805f811461194c576040519150601f19603f3d011682016040523d82523d5f602084013e611951565b606091505b505090508061172a5760405162461bcd60e51b815260206004820152601660248201527514995dd85c99081d1c985b9cd9995c8819985a5b195960521b60448201526064016106ac565b6004805460405163a9059cbb60e01b81526001600160a01b03858116938201939093526024810184905291169063a9059cbb906044016020604051808303815f875af11580156119ed573d5f803e3d5ffd5b505050506040513d601f19601f82011682018060405250810190611a119190611fcb565b610dca5760405162461bcd60e51b8152602060048201526015602482015274151bdad95b881d1c985b9cd9995c8819985a5b1959605a1b60448201526064016106ac565b5f80516020612108833981519152546002036107f557604051633ee5aeb560e01b815260040160405180910390fd5b6001600160a01b0382165f908152600160208181526040832060060180549283018155835290912001611ab78282612035565b50816001600160a01b03167fca8c9accce1ea9b1e88e76d666c26849f39052a6344521346b739cdd29ad4ae682604051611af191906120f5565b60405180910390a25050565b80356001600160a01b0381168114611b13575f80fd5b919050565b5f60208284031215611b28575f80fd5b610cbc82611afd565b634e487b7160e01b5f52602160045260245ffd5b60058110611b5557611b55611b31565b9052565b5f60c082019050878252866020830152856040830152846060830152611b826080830185611b45565b82151560a0830152979650505050505050565b803560078110611b13575f80fd5b5f60208284031215611bb3575f80fd5b610cbc82611b95565b5f805f8060808587031215611bcf575f80fd5b611bd885611b95565b966020860135965060408601359560600135945092505050565b858152602081018590526040810184905260a08101611c146060830185611b45565b8260808301529695505050505050565b5f60208284031215611c34575f80fd5b5035919050565b60208101611c498284611b45565b92915050565b5f8060408385031215611c60575f80fd5b611c6983611afd565b9150611c7760208401611b95565b90509250929050565b634e487b7160e01b5f52604160045260245ffd5b5f6020808385031215611ca5575f80fd5b823567ffffffffffffffff80821115611cbc575f80fd5b818501915085601f830112611ccf575f80fd5b813581811115611ce157611ce1611c80565b8060051b604051601f19603f83011681018181108582111715611d0657611d06611c80565b604052918252848201925083810185019188831115611d23575f80fd5b938501935b82851015611d4857611d3985611afd565b84529385019392850192611d28565b98975050505050505050565b604080825283519082018190525f906020906060840190828701845b82811015611d955781516001600160a01b031684529284019290840190600101611d70565b505050838103828501528451808252858301918301905f5b81811015611dc957835183529284019291840191600101611dad565b5090979650505050505050565b5f81518084525f5b81811015611dfa57602081850181015186830182015201611dde565b505f602082860101526020601f19601f83011685010191505092915050565b5f60208083016020845280855180835260408601915060408160051b8701019250602087015f5b82811015611e6e57603f19888603018452611e5c858351611dd6565b94509285019290850190600101611e40565b5092979650505050505050565b634e487b7160e01b5f52601160045260245ffd5b5f60018201611ea057611ea0611e7b565b5060010190565b60208082526017908201527f477561726469616e206e6f742072656769737465726564000000000000000000604082015260600190565b80820180821115611c4957611c49611e7b565b81810381811115611c4957611c49611e7b565b634e487b7160e01b5f52603260045260245ffd5b5f81611f2657611f26611e7b565b505f190190565b600181811c90821680611f4157607f821691505b602082108103611f5f57634e487b7160e01b5f52602260045260245ffd5b50919050565b6080810160078610611f7957611f79611b31565b9481526020810193909352604083019190915260609091015290565b5f82611faf57634e487b7160e01b5f52601260045260245ffd5b500490565b8082028115828204841417611c4957611c49611e7b565b5f60208284031215611fdb575f80fd5b81518015158114610cbc575f80fd5b601f82111561172a57805f5260205f20601f840160051c8101602085101561200f5750805b601f840160051c820191505b8181101561202e575f815560010161201b565b5050505050565b815167ffffffffffffffff81111561204f5761204f611c80565b6120638161205d8454611f2d565b84611fea565b602080601f831160018114612096575f841561207f5750858301515b5f19600386901b1c1916600185901b1785556120ed565b5f85815260208120601f198616915b828110156120c4578886015182559484019460019091019084016120a5565b50858210156120e157878501515f19600388901b60f8161c191681555b505060018460011b0185555b505050505050565b602081525f610cbc6020830184611dd656fe9b779b17422d0df92223018b32b4d1fa46e071723d6817e2486d003becc55f00a264697066735822122082aeb4a7e14bd35af93ac68e23492392498a7e2293810955db39dfdc2c6c83a064736f6c63430008180033",
  "linkReferences": {},
  "deployedLinkReferences": {}
}