{
  "_format": "hh-sol-artifact-1",
  "contractName": "ConservationNFT",
  "sourceName": "contracts/ConservationNFT.sol",
  "abi": [
    {
      "inputs": [
        {
          "internalType": "address",
          "name": "_conservationFund",
          "type": "address"
        }
      ],
      "stateMutability": "nonpayable",
      "type": "constructor"
    },
    {
      "inputs": [],
      "name": "ERC721EnumerableForbiddenBatchMint",
      "type": "error"
    },
    {
      "inputs": [
        {
          "internalType": "address",
          "name": "sender",
          "type": "address"
        },
        {
          "internalType": "uint256",
          "name": "tokenId",
          "type": "uint256"
        },
        {
          "internalType": "address",
          "name": "owner",
          "type": "address"
        }
      ],
      "name": "ERC721IncorrectOwner",
      "type": "error"
    },
    {
      "inputs": [
        {
          "internalType": "address",
          "name": "operator",
          "type": "address"
        },
        {
          "internalType": "uint256",
          "name": "tokenId",
          "type": "uint256"
        }
      ],
      "name": "ERC721InsufficientApproval",
      "type": "error"
    },
    {
      "inputs": [
        {
          "internalType": "address",
          "name": "approver",
          "type": "address"
        }
      ],
      "name": "ERC721InvalidApprover",
      "type": "error"
    },
    {
      "inputs": [
        {
          "internalType": "address",
          "name": "operator",
          "type": "address"
        }
      ],
      "name": "ERC721InvalidOperator",
      "type": "error"
    },
    {
      "inputs": [
        {
          "internalType": "address",
          "name": "owner",
          "type": "address"
        }
      ],
      "name": "ERC721InvalidOwner",
      "type": "error"
    },
    {
      "inputs": [
        {
          "internalType": "address",
          "name": "receiver",
          "type": "address"
        }
      ],
      "name": "ERC721InvalidReceiver",
      "type": "error"
    },
    {
      "inputs": [
        {
          "internalType": "address",
          "name": "sender",
          "type": "address"
        }
      ],
      "name": "ERC721InvalidSender",
      "type": "error"
    },
    {
      "inputs": [
        {
          "internalType": "uint256",
          "name": "tokenId",
          "type": "uint256"
        }
      ],
      "name": "ERC721NonexistentToken",
      "type": "error"
    },
    {
      "inputs": [
        {
          "internalType": "address",
          "name": "owner",
          "type": "address"
        },
        {
          "internalType": "uint256",
          "name": "index",
          "type": "uint256"
        }
      ],
      "name": "ERC721OutOfBoundsIndex",
      "type": "error"
    },
    {
      "inputs": [
        {
          "internalType": "address",
          "name": "owner",
          "type": "address"
        }
      ],
      "name": "OwnableInvalidOwner",
      "type": "error"
    },
    {
      "inputs": [
        {
          "internalType": "address",
          "name": "account",
          "type": "address"
        }
      ],
      "name": "OwnableUnauthorizedAccount",
      "type": "error"
    },
    {
      "inputs": [],
      "name": "ReentrancyGuardReentrantCall",
      "type": "error"
    },
    {
      "anonymous": false,
      "inputs": [
        {
          "indexed": true,
          "internalType": "address",
          "name": "owner",
          "type": "address"
        },
        {
          "indexed": true,
          "internalType": "address",
          "name": "approved",
          "type": "address"
        },
        {
          "indexed": true,
          "internalType": "uint256",
          "name": "tokenId",
          "type": "uint256"
        }
      ],
      "name": "Approval",
      "type": "event"
    },
    {
      "anonymous": false,
      "inputs": [
        {
          "indexed": true,
          "internalType": "address",
          "name": "owner",
          "type": "address"
        },
        {
          "indexed": true,
          "internalType": "address",
          "name": "operator",
          "type": "address"
        },
        {
          "indexed": false,
          "internalType": "bool",
          "name": "approved",
          "type": "bool"
        }
      ],
      "name": "ApprovalForAll",
      "type": "event"
    },
    {
      "anonymous": false,
      "inputs": [
        {
          "indexed": false,
          "internalType": "uint256",
          "name": "_fromTokenId",
          "type": "uint256"
        },
        {
          "indexed": false,
          "internalType": "uint256",
          "name": "_toTokenId",
          "type": "uint256"
        }
      ],
      "name": "BatchMetadataUpdate",
      "type": "event"
    },
    {
      "anonymous": false,
      "inputs": [
        {
          "indexed": true,
          "internalType": "address",
          "name": "newFund",
          "type": "address"
        }
      ],
      "name": "ConservationFundUpdated",
      "type": "event"
    },
    {
      "anonymous": false,
      "inputs": [
        {
          "indexed": true,
          "internalType": "address",
          "name": "to",
          "type": "address"
        },
        {
          "indexed": false,
          "internalType": "uint256",
          "name": "amount",
          "type": "uint256"
        }
      ],
      "name": "FundsWithdrawn",
      "type": "event"
    },
    {
      "anonymous": false,
      "inputs": [
        {
          "indexed": false,
          "internalType": "uint256",
          "name": "_tokenId",
          "type": "uint256"
        }
      ],
      "name": "MetadataUpdate",
      "type": "event"
    },
    {
      "anonymous": false,
      "inputs": [
        {
          "indexed": true,
          "internalType": "address",
          "name": "minter",
          "type": "address"
        },
        {
          "indexed": true,
          "internalType": "uint256",
          "name": "tokenId",
          "type": "uint256"
        },
        {
          "indexed": false,
          "internalType": "enum ConservationNFT.Tier",
          "name": "tier",
          "type": "uint8"
        },
        {
          "indexed": false,
          "internalType": "uint256",
          "name": "amount",
          "type": "uint256"
        },
        {
          "indexed": false,
          "internalType": "string",
          "name": "reefId",
          "type": "string"
        }
      ],
      "name": "NFTMinted",
      "type": "event"
    },
    {
      "anonymous": false,
      "inputs": [
        {
          "indexed": true,
          "internalType": "address",
          "name": "previousOwner",
          "type": "address"
        },
        {
          "indexed": true,
          "internalType": "address",
          "name": "newOwner",
          "type": "address"
        }
      ],
      "name": "OwnershipTransferred",
      "type": "event"
    },
    {
      "anonymous": false,
      "inputs": [
        {
          "indexed": true,
          "internalType": "address",
          "name": "from",
          "type": "address"
        },
        {
          "indexed": true,
          "internalType": "address",
          "name": "to",
          "type": "address"
        },
        {
          "indexed": true,
          "internalType": "uint256",
          "name": "tokenId",
          "type": "uint256"
        }
      ],
      "name": "Transfer",
      "type": "event"
    },
    {
      "inputs": [
        {
          "internalType": "address",
          "name": "to",
          "type": "address"
        },
        {
          "internalType": "uint256",
          "name": "tokenId",
          "type": "uint256"
        }
      ],
      "name": "approve",
      "outputs": [],
      "stateMutability": "nonpayable",
      "type": "function"
    },
    {
      "inputs": [
        {
          "internalType": "address",
          "name": "owner",
          "type": "address"
        }
      ],
      "name": "balanceOf",
      "outputs": [
        {
          "internalType": "uint256",
          "name": "",
          "type": "uint256"
        }
      ],
      "stateMutability": "view",
      "type": "function"
    },
    {
      "inputs": [],
      "name": "conservationFund",
      "outputs": [
        {
          "internalType": "address",
          "name": "",
          "type": "address"
        }
      ],
      "stateMutability": "view",
      "type": "function"
    },
    {
      "inputs": [
        {
          "internalType": "uint256",
          "name": "tokenId",
          "type": "uint256"
        }
      ],
      "name": "getApproved",
      "outputs": [
        {
          "internalType": "address",
          "name": "",
          "type": "address"
        }
      ],
      "stateMutability": "view",
      "type": "function"
    },
    {
      "inputs": [
        {
          "internalType": "enum ConservationNFT.Tier",
          "name": "_tier",
          "type": "uint8"
        }
      ],
      "name": "getTierStats",
      "outputs": [
        {
          "internalType": "uint256",
          "name": "price",
          "type": "uint256"
        },
        {
          "internalType": "uint256",
          "name": "maxSupply",
          "type": "uint256"
        },
        {
          "internalType": "uint256",
          "name": "minted",
          "type": "uint256"
        },
        {
          "internalType": "uint256",
          "name": "remaining",
          "type": "uint256"
        }
      ],
      "stateMutability": "view",
      "type": "function"
    },
    {
      "inputs": [],
      "name": "getTotalDonations",
      "outputs": [
        {
          "internalType": "uint256",
          "name": "",
          "type": "uint256"
        }
      ],
      "stateMutability": "view",
      "type": "function"
    },
    {
      "inputs": [
        {
          "internalType": "address",
          "name": "_user",
          "type": "address"
        }
      ],
      "name": "getUserNFTs",
      "outputs": [
        {
          "internalType": "uint256[]",
          "name": "",
          "type": "uint256[]"
        }
      ],
      "stateMutability": "view",
      "type": "function"
    },
    {
      "inputs": [
        {
          "internalType": "address",
          "name": "_user",
          "type": "address"
        },
        {
          "internalType": "enum ConservationNFT.Tier",
          "name": "_tier",
          "type": "uint8"
        }
      ],
      "name": "getUserNFTsByTier",
      "outputs": [
        {
          "internalType": "uint256[]",
          "name": "",
          "type": "uint256[]"
        }
      ],
      "stateMutability": "view",
      "type": "function"
    },
    {
      "inputs": [
        {
          "internalType": "address",
          "name": "_user",
          "type": "address"
        }
      ],
      "name": "hasVotingRights",
      "outputs": [
        {
          "internalType": "bool",
          "name": "",
          "type": "bool"
        }
      ],
      "stateMutability": "view",
      "type": "function"
    },
    {
      "inputs": [
        {
          "internalType": "address",
          "name": "owner",
          "type": "address"
        },
        {
          "internalType": "address",
          "name": "operator",
          "type": "address"
        }
      ],
      "name": "isApprovedForAll",
      "outputs": [
        {
          "internalType": "bool",
          "name": "",
          "type": "bool"
        }
      ],
      "stateMutability": "view",
      "type": "function"
    },
    {
      "inputs": [
        {
          "internalType": "enum ConservationNFT.Tier",
          "name": "_tier",
          "type": "uint8"
        },
        {
          "internalType": "string",
          "name": "_reefId",
          "type": "string"
        }
      ],
      "name": "mintConservationNFT",
      "outputs": [
        {
          "internalType": "uint256",
          "name": "",
          "type": "uint256"
        }
      ],
      "stateMutability": "payable",
      "type": "function"
    },
    {
      "inputs": [],
      "name": "name",
      "outputs": [
        {
          "internalType": "string",
          "name": "",
          "type": "string"
        }
      ],
      "stateMutability": "view",
      "type": "function"
    },
    {
      "inputs": [
        {
          "internalType": "uint256",
          "name": "",
          "type": "uint256"
        }
      ],
      "name": "nftMetadata",
      "outputs": [
        {
          "internalType": "enum ConservationNFT.Tier",
          "name": "tier",
          "type": "uint8"
        },
        {
          "internalType": "string",
          "name": "reefId",
          "type": "string"
        },
        {
          "internalType": "uint256",
          "name": "mintTimestamp",
          "type": "uint256"
        },
        {
          "internalType": "uint256",
          "name": "donationAmount",
          "type": "uint256"
        }
      ],
      "stateMutability": "view",
      "type": "function"
    },
    {
      "inputs": [],
      "name": "owner",
      "outputs": [
        {
          "internalType": "address",
          "name": "",
          "type": "address"
        }
      ],
      "stateMutability": "view",
      "type": "function"
    },
    {
      "inputs": [
        {
          "internalType": "uint256",
          "name": "tokenId",
          "type": "uint256"
        }
      ],
      "name": "ownerOf",
      "outputs": [
        {
          "internalType": "address",
          "name": "",
          "type": "address"
        }
      ],
      "stateMutability": "view",
      "type": "function"
    },
    {
      "inputs": [],
      "name": "renounceOwnership",
      "outputs": [],
      "stateMutability": "nonpayable",
      "type": "function"
    },
    {
      "inputs": [
        {
          "internalType": "address",
          "name": "from",
          "type": "address"
        },
        {
          "internalType": "address",
          "name": "to",
          "type": "address"
        },
        {
          "internalType": "uint256",
          "name": "tokenId",
          "type": "uint256"
        }
      ],
      "name": "safeTransferFrom",
      "outputs": [],
      "stateMutability": "nonpayable",
      "type": "function"
    },
    {
      "inputs": [
        {
          "internalType": "address",
          "name": "from",
          "type": "address"
        },
        {
          "internalType": "address",
          "name": "to",
          "type": "address"
        },
        {
          "internalType": "uint256",
          "name": "tokenId",
          "type": "uint256"
        },
        {
          "internalType": "bytes",
          "name": "data",
          "type": "bytes"
        }
      ],
      "name": "safeTransferFrom",
      "outputs": [],
      "stateMutability": "nonpayable",
      "type": "function"
    },
    {
      "inputs": [
        {
          "internalType": "address",
          "name": "operator",
          "type": "address"
        },
        {
          "internalType": "bool",
          "name": "approved",
          "type": "bool"
        }
      ],
      "name": "setApprovalForAll",
      "outputs": [],
      "stateMutability": "nonpayable",
      "type": "function"
    },
    {
      "inputs": [
        {
          "internalType": "address",
          "name": "_newFund",
          "type": "address"
        }
      ],
      "name": "setConservationFund",
      "outputs": [],
      "stateMutability": "nonpayable",
      "type": "function"
    },
    {
      "inputs": [
        {
          "internalType": "enum ConservationNFT.Tier",
          "name": "_tier",
          "type": "uint8"
        },
        {
          "internalType": "string",
          "name": "_uri",
          "type": "string"
        }
      ],
      "name": "setTierBaseURI",
      "outputs": [],
      "stateMutability": "nonpayable",
      "type": "function"
    },
    {
      "inputs": [
        {
          "internalType": "bytes4",
          "name": "interfaceId",
          "type": "bytes4"
        }
      ],
      "name": "supportsInterface",
      "outputs": [
        {
          "internalType": "bool",
          "name": "",
          "type": "bool"
        }
      ],
      "stateMutability": "view",
      "type": "function"
    },
    {
      "inputs": [],
      "name": "symbol",
      "outputs": [
        {
          "internalType": "string",
          "name": "",
          "type": "string"
        }
      ],
      "stateMutability": "view",
      "type": "function"
    },
    {
      "inputs": [
        {
          "internalType": "enum ConservationNFT.Tier",
          "name": "",
          "type": "uint8"
        }
      ],
      "name": "tierBaseURIs",
      "outputs": [
        {
          "internalType": "string",
          "name": "",
          "type": "string"
        }
      ],
      "stateMutability": "view",
      "type": "function"
    },
    {
      "inputs": [
        {
          "internalType": "enum ConservationNFT.Tier",
          "name": "",
          "type": "uint8"
        }
      ],
      "name": "tierMaxSupply",
      "outputs": [
        {
          "internalType": "uint256",
          "name": "",
          "type": "uint256"
        }
      ],
      "stateMutability": "view",
      "type": "function"
    },
    {
      "inputs": [
        {
          "internalType": "enum ConservationNFT.Tier",
          "name": "",
          "type": "uint8"
        }
      ],
      "name": "tierMinted",
      "outputs": [
        {
          "internalType": "uint256",
          "name": "",
          "type": "uint256"
        }
      ],
      "stateMutability": "view",
      "type": "function"
    },
    {
      "inputs": [
        {
          "internalType": "enum ConservationNFT.Tier",
          "name": "",
          "type": "uint8"
        }
      ],
      "name": "tierPrices",
      "outputs": [
        {
          "internalType": "uint256",
          "name": "",
          "type": "uint256"
        }
      ],
      "stateMutability": "view",
      "type": "function"
    },
    {
      "inputs": [
        {
          "internalType": "uint256",
          "name": "index",
          "type": "uint256"
        }
      ],
      "name": "tokenByIndex",
      "outputs": [
        {
          "internalType": "uint256",
          "name": "",
          "type": "uint256"
        }
      ],
      "stateMutability": "view",
      "type": "function"
    },
    {
      "inputs": [
        {
          "internalType": "address",
          "name": "owner",
          "type": "address"
        },
        {
          "internalType": "uint256",
          "name": "index",
          "type": "uint256"
        }
      ],
      "name": "tokenOfOwnerByIndex",
      "outputs": [
        {
          "internalType": "uint256",
          "name": "",
          "type": "uint256"
        }
      ],
      "stateMutability": "view",
      "type": "function"
    },
    {
      "inputs": [
        {
          "internalType": "uint256",
          "name": "tokenId",
          "type": "uint256"
        }
      ],
      "name": "tokenURI",
      "outputs": [
        {
          "internalType": "string",
          "name": "",
          "type": "string"
        }
      ],
      "stateMutability": "view",
      "type": "function"
    },
    {
      "inputs": [],
      "name": "totalSupply",
      "outputs": [
        {
          "internalType": "uint256",
          "name": "",
          "type": "uint256"
        }
      ],
      "stateMutability": "view",
      "type": "function"
    },
    {
      "inputs": [
        {
          "internalType": "address",
          "name": "from",
          "type": "address"
        },
        {
          "internalType": "address",
          "name": "to",
          "type": "address"
        },
        {
          "internalType": "uint256",
          "name": "tokenId",
          "type": "uint256"
        }
      ],
      "name": "transferFrom",
      "outputs": [],
      "stateMutability": "nonpayable",
      "type": "function"
    },
    {
      "inputs": [
        {
          "internalType": "address",
          "name": "newOwner",
          "type": "address"
        }
      ],
      "name": "transferOwnership",
      "outputs": [],
      "stateMutability": "nonpayable",
      "type": "function"
    },
    {
      "inputs": [],
      "name": "withdrawFunds",
      "outputs": [],
      "stateMutability": "nonpayable",
      "type": "function"
    }
  ],
  "bytecode": "0x608060405234801562000010575f80fd5b5060405162002d6038038062002d608339810160408190526200003391620002c5565b336040518060400160405280601781526020017f436f72616c477561726420436f6e736572766174696f6e0000000000000000008152506040518060400160405280600581526020016410d3d4905360da1b815250815f908162000098919062000392565b506001620000a7828262000392565b5050506001600160a01b038116620000d857604051631e4fbdf760e01b81525f600482015260240160405180910390fd5b620000e38162000274565b5060017f9b779b17422d0df92223018b32b4d1fa46e071723d6817e2486d003becc55f0055601180546001600160a01b0319166001600160a01b0392909216919091179055662386f26fc100007f13649b2456f1b42fef0f0040b3aaeabcd21a76a0f3f5defd4f583839455116e85566b1a2bc2ec500007fd421a5181c571bba3f01190c922c3b2a896fc1d84e86c9f17ac10e67ebef8b5c556703782dace9d900007f5d6016397a73f5e079297ac5a36fef17b4d9c3831618e63ab105738020ddd72055670de0b6b3a76400007fc0da782485e77ae272268ae0a3ff44c1552ecb60b3743924de17a815e0a3cfd755600d6020526127107f81955a0a11e65eac625c29e8882660bae4e165a75d72780094acae8ece9a29ee556107d07ffd54ff1ed53f34a900b24c5ba64f85761163b5d82d98a47b9bd80e45466993c5556101f47f10a81eed9d63d16face5e76357905348e6253d3394086026bb2bf2145d7cc2495560035f5260647f26b4a10d0f0b04925c23bd4480ee147c916e5e87a7d68206a533dad160ac81e2556200045e565b600b80546001600160a01b038381166001600160a01b0319831681179093556040519116919082907f8be0079c531659141344cd1fd0a4f28419497f9722a3daafe3b4186f6b6457e0905f90a35050565b5f60208284031215620002d6575f80fd5b81516001600160a01b0381168114620002ed575f80fd5b9392505050565b634e487b7160e01b5f52604160045260245ffd5b600181811c908216806200031d57607f821691505b6020821081036200033c57634e487b7160e01b5f52602260045260245ffd5b50919050565b601f8211156200038d57805f5260205f20601f840160051c81016020851015620003695750805b601f840160051c820191505b818110156200038a575f815560010162000375565b50505b505050565b81516001600160401b03811115620003ae57620003ae620002f4565b620003c681620003bf845462000308565b8462000342565b602080601f831160018114620003fc575f8415620003e45750858301515b5f19600386901b1c1916600185901b17855562000456565b5f85815260208120601f198616915b828110156200042c578886015182559484019460019091019084016200040b565b50858210156200044a57878501515f19600388901b60f8161c191681555b505060018460011b0185555b505050505050565b6128f4806200046c5f395ff3fe6080604052600436106101f1575f3560e01c80636352211e11610108578063971ced741161009d578063b88d4fde1161006d578063b88d4fde146105cd578063b913a386146105ec578063c87b56dd1461060b578063e985e9c51461062a578063f2fde38b14610649575f80fd5b8063971ced7414610519578063a22cb46514610558578063b4fad6f814610577578063b7c858fb146105a2575f80fd5b8063777c658f116100d8578063777c658f146104c35780638c078f7a146104d55780638da5cb5b146104e857806395d89b4114610505575f80fd5b80636352211e146104525780636963aca81461047157806370a0823114610490578063715018a6146104af575f80fd5b806323b872dd116101895780634954101511610159578063495410151461039b5780634f6ccce7146103ca57806352de4ee5146103e95780635caf901c146104085780635e56093014610433575f80fd5b806323b872dd1461032a57806324600fc3146103495780632f745c591461035d57806342842e0e1461037c575f80fd5b8063095ea7b3116101c4578063095ea7b3146102a0578063119b70ac146102c157806314fe4826146102e057806318160ddd1461030c575f80fd5b806301ffc9a7146101f557806306c8c5251461022957806306fdde0314610255578063081812fc14610269575b5f80fd5b348015610200575f80fd5b5061021461020f366004612183565b610668565b60405190151581526020015b60405180910390f35b348015610234575f80fd5b506102486102433660046121b1565b610678565b6040516102209190612217565b348015610260575f80fd5b5061024861070f565b348015610274575f80fd5b50610288610283366004612229565b61079e565b6040516001600160a01b039091168152602001610220565b3480156102ab575f80fd5b506102bf6102ba366004612256565b6107c5565b005b3480156102cc575f80fd5b506102146102db36600461227e565b6107d4565b3480156102eb575f80fd5b506102ff6102fa366004612297565b610851565b60405161022091906122c8565b348015610317575f80fd5b506009545b604051908152602001610220565b348015610335575f80fd5b506102bf6103443660046122ff565b6109e1565b348015610354575f80fd5b506102bf610a6f565b348015610368575f80fd5b5061031c610377366004612256565b610bb2565b348015610387575f80fd5b506102bf6103963660046122ff565b610c15565b3480156103a6575f80fd5b506103ba6103b5366004612229565b610c34565b604051610220949392919061236c565b3480156103d5575f80fd5b5061031c6103e4366004612229565b610ce6565b3480156103f4575f80fd5b506102ff61040336600461227e565b610d3b565b348015610413575f80fd5b5061031c6104223660046121b1565b600d6020525f908152604090205481565b34801561043e575f80fd5b50601154610288906001600160a01b031681565b34801561045d575f80fd5b5061028861046c366004612229565b610dd0565b34801561047c575f80fd5b506102bf61048b366004612425565b610dda565b34801561049b575f80fd5b5061031c6104aa36600461227e565b610e22565b3480156104ba575f80fd5b506102bf610e67565b3480156104ce575f80fd5b504761031c565b61031c6104e3366004612425565b610e78565b3480156104f3575f80fd5b50600b546001600160a01b0316610288565b348015610510575f80fd5b50610248611112565b348015610524575f80fd5b506105386105333660046121b1565b611121565b604080519485526020850193909352918301526060820152608001610220565b348015610563575f80fd5b506102bf610572366004612483565b611242565b348015610582575f80fd5b5061031c6105913660046121b1565b600c6020525f908152604090205481565b3480156105ad575f80fd5b5061031c6105bc3660046121b1565b600e6020525f908152604090205481565b3480156105d8575f80fd5b506102bf6105e73660046124bc565b61124d565b3480156105f7575f80fd5b506102bf61060636600461227e565b611265565b348015610616575f80fd5b50610248610625366004612229565b6112fe565b348015610635575f80fd5b50610214610644366004612533565b611309565b348015610654575f80fd5b506102bf61066336600461227e565b611336565b5f61067282611373565b92915050565b60106020525f9081526040902080546106909061255b565b80601f01602080910402602001604051908101604052809291908181526020018280546106bc9061255b565b80156107075780601f106106de57610100808354040283529160200191610707565b820191905f5260205f20905b8154815290600101906020018083116106ea57829003601f168201915b505050505081565b60605f805461071d9061255b565b80601f01602080910402602001604051908101604052809291908181526020018280546107499061255b565b80156107945780601f1061076b57610100808354040283529160200191610794565b820191905f5260205f20905b81548152906001019060200180831161077757829003601f168201915b5050505050905090565b5f6107a882611397565b505f828152600460205260409020546001600160a01b0316610672565b6107d08282336113cf565b5050565b5f806107df83610d3b565b90505f5b8151811015610848576003600f5f84848151811061080357610803612593565b60209081029190910181015182528101919091526040015f205460ff16600381111561083157610831612338565b03610840575060019392505050565b6001016107e3565b505f9392505050565b60605f61085d84610d3b565b90505f805b82518110156108db5784600381111561087d5761087d612338565b600f5f85848151811061089257610892612593565b60209081029190910181015182528101919091526040015f205460ff1660038111156108c0576108c0612338565b036108d357816108cf816125bb565b9250505b600101610862565b505f8167ffffffffffffffff8111156108f6576108f661239e565b60405190808252806020026020018201604052801561091f578160200160208202803683370190505b5090505f805b84518110156109d55786600381111561094057610940612338565b600f5f87848151811061095557610955612593565b60209081029190910181015182528101919091526040015f205460ff16600381111561098357610983612338565b036109cd5784818151811061099a5761099a612593565b60200260200101518383815181106109b4576109b4612593565b6020908102919091010152816109c9816125bb565b9250505b600101610925565b50909695505050505050565b6001600160a01b038216610a0f57604051633250574960e11b81525f60048201526024015b60405180910390fd5b5f610a1b8383336113dc565b9050836001600160a01b0316816001600160a01b031614610a69576040516364283d7b60e01b81526001600160a01b0380861660048301526024820184905282166044820152606401610a06565b50505050565b610a776113f0565b610a7f61141d565b4780610ac45760405162461bcd60e51b81526020600482015260146024820152734e6f2066756e647320746f20776974686472617760601b6044820152606401610a06565b6011546040515f916001600160a01b03169083908381818185875af1925050503d805f8114610b0e576040519150601f19603f3d011682016040523d82523d5f602084013e610b13565b606091505b5050905080610b565760405162461bcd60e51b815260206004820152600f60248201526e151c985b9cd9995c8819985a5b1959608a1b6044820152606401610a06565b6011546040518381526001600160a01b03909116907feaff4b37086828766ad3268786972c0cd24259d4c87a80f9d3963a3c3d999b0d9060200160405180910390a25050610bb060015f8051602061289f83398151915255565b565b5f610bbc83610e22565b8210610bed5760405163295f44f760e21b81526001600160a01b038416600482015260248101839052604401610a06565b506001600160a01b03919091165f908152600760209081526040808320938352929052205490565b610c2f83838360405180602001604052805f81525061124d565b505050565b600f6020525f90815260409020805460018201805460ff9092169291610c599061255b565b80601f0160208091040260200160405190810160405280929190818152602001828054610c859061255b565b8015610cd05780601f10610ca757610100808354040283529160200191610cd0565b820191905f5260205f20905b815481529060010190602001808311610cb357829003601f168201915b5050505050908060020154908060030154905084565b5f610cf060095490565b8210610d185760405163295f44f760e21b81525f600482015260248101839052604401610a06565b60098281548110610d2b57610d2b612593565b905f5260205f2001549050919050565b60605f610d4783610e22565b90505f8167ffffffffffffffff811115610d6357610d6361239e565b604051908082528060200260200182016040528015610d8c578160200160208202803683370190505b5090505f5b82811015610dc857610da38582610bb2565b828281518110610db557610db5612593565b6020908102919091010152600101610d91565b509392505050565b5f61067282611397565b610de26113f0565b8060105f846003811115610df857610df8612338565b6003811115610e0957610e09612338565b81526020019081526020015f209081610c2f9190612617565b5f6001600160a01b038216610e4c576040516322718ad960e21b81525f6004820152602401610a06565b506001600160a01b03165f9081526003602052604090205490565b610e6f6113f0565b610bb05f611438565b5f610e8161141d565b600c5f846003811115610e9657610e96612338565b6003811115610ea757610ea7612338565b81526020019081526020015f2054341015610efb5760405162461bcd60e51b8152602060048201526014602482015273125b9cdd59999a58da595b9d081c185e5b595b9d60621b6044820152606401610a06565b600d5f846003811115610f1057610f10612338565b6003811115610f2157610f21612338565b81526020019081526020015f2054600e5f856003811115610f4457610f44612338565b6003811115610f5557610f55612338565b81526020019081526020015f205410610fa05760405162461bcd60e51b815260206004820152600d60248201526c151a595c881cdbdb19081bdd5d609a1b6044820152606401610a06565b601280549081905f610fb1836125bb565b91905055506040518060800160405280856003811115610fd357610fd3612338565b8152602080820186905242604080840191909152346060909301929092525f848152600f9091522081518154829060ff1916600183600381111561101957611019612338565b0217905550602082015160018201906110329082612617565b506040820151816002015560608201518160030155905050600e5f85600381111561105f5761105f612338565b600381111561107057611070612338565b81526020019081526020015f205f81548092919061108d906125bb565b91905055505f61109d8286611489565b90506110a933836114ef565b6110b38282611508565b81336001600160a01b03167fc64ff951bc83c8d87b6900899eea5cfd5cb22992c8d36fced97baeb41c5457718734886040516110f1939291906126d3565b60405180910390a350905061067260015f8051602061289f83398151915255565b60606001805461071d9061255b565b5f805f80600c5f86600381111561113a5761113a612338565b600381111561114b5761114b612338565b81526020019081526020015f2054600d5f87600381111561116e5761116e612338565b600381111561117f5761117f612338565b81526020019081526020015f2054600e5f8860038111156111a2576111a2612338565b60038111156111b3576111b3612338565b81526020019081526020015f2054600e5f8960038111156111d6576111d6612338565b60038111156111e7576111e7612338565b81526020019081526020015f2054600d5f8a600381111561120a5761120a612338565b600381111561121b5761121b612338565b81526020019081526020015f20546112339190612701565b93509350935093509193509193565b6107d0338383611557565b6112588484846109e1565b610a69338585858561161e565b61126d6113f0565b6001600160a01b0381166112b55760405162461bcd60e51b815260206004820152600f60248201526e496e76616c6964206164647265737360881b6044820152606401610a06565b601180546001600160a01b0319166001600160a01b0383169081179091556040517faa7d538f1fce004d07f5f4511e80196802fb67951f3558c2e2e3aefc0b2e5e6f905f90a250565b606061067282611746565b6001600160a01b039182165f90815260056020908152604080832093909416825291909152205460ff1690565b61133e6113f0565b6001600160a01b03811661136757604051631e4fbdf760e01b81525f6004820152602401610a06565b61137081611438565b50565b5f6001600160e01b0319821663780e9d6360e01b14806106725750610672826117bf565b5f818152600260205260408120546001600160a01b03168061067257604051637e27328960e01b815260048101849052602401610a06565b610c2f83838360016117e3565b5f6113e88484846118e7565b949350505050565b600b546001600160a01b03163314610bb05760405163118cdaa760e01b8152336004820152602401610a06565b6114256119b2565b60025f8051602061289f83398151915255565b600b80546001600160a01b038381166001600160a01b0319831681179093556040519116919082907f8be0079c531659141344cd1fd0a4f28419497f9722a3daafe3b4186f6b6457e0905f90a35050565b606060105f8360038111156114a0576114a0612338565b60038111156114b1576114b1612338565b81526020019081526020015f206114c7846119e1565b6040516020016114d8929190612714565b604051602081830303815290604052905092915050565b6107d0828260405180602001604052805f815250611b07565b5f82815260066020526040902061151f8282612617565b506040518281527ff8e1a15aba9398e019f0b49df1a4fde98ee17ae345cb5f6b5e2c27f5033e8ce79060200160405180910390a15050565b6001600160a01b0383166115805760405163a9fbf51f60e01b81525f6004820152602401610a06565b6001600160a01b0382166115b257604051630b61174360e31b81526001600160a01b0383166004820152602401610a06565b6001600160a01b038381165f81815260056020908152604080832094871680845294825291829020805460ff191686151590811790915591519182527f17307eab39ab6107e8899845ad3d59bd9653f200f220920489ca2b5937696c31910160405180910390a3505050565b6001600160a01b0383163b1561173f57604051630a85bd0160e11b81526001600160a01b0384169063150b7a02906116609088908890879087906004016127b6565b6020604051808303815f875af192505050801561169a575060408051601f3d908101601f19168201909252611697918101906127f2565b60015b611701573d8080156116c7576040519150601f19603f3d011682016040523d82523d5f602084013e6116cc565b606091505b5080515f036116f957604051633250574960e11b81526001600160a01b0385166004820152602401610a06565b805160208201fd5b6001600160e01b03198116630a85bd0160e11b1461173d57604051633250574960e11b81526001600160a01b0385166004820152602401610a06565b505b5050505050565b606061175182611397565b505f61176760408051602081019091525f815290565b90505f61177384611b1e565b905081515f03611784579392505050565b8051156117b657818160405160200161179e92919061280d565b60405160208183030381529060405292505050919050565b6113e884611bbd565b5f6001600160e01b03198216632483248360e11b1480610672575061067282611c2e565b80806117f757506001600160a01b03821615155b156118b8575f61180684611397565b90506001600160a01b038316158015906118325750826001600160a01b0316816001600160a01b031614155b801561184557506118438184611309565b155b1561186e5760405163a9fbf51f60e01b81526001600160a01b0384166004820152602401610a06565b81156118b65783856001600160a01b0316826001600160a01b03167f8c5be1e5ebec7d5bd14f71427d1e84f3dd0314c0f7b2291e5b200ac8c7c3b92560405160405180910390a45b505b50505f90815260046020526040902080546001600160a01b0319166001600160a01b0392909216919091179055565b5f806118f4858585611c7d565b90506001600160a01b0381166119505761194b84600980545f838152600a60205260408120829055600182018355919091527f6e1540171b6c0c960b71a7020d9f60077f6af931a8bbf590da0223dacf75c7af0155565b611973565b846001600160a01b0316816001600160a01b031614611973576119738185611d6f565b6001600160a01b03851661198f5761198a84611dec565b6113e8565b846001600160a01b0316816001600160a01b0316146113e8576113e88585611e93565b5f8051602061289f83398151915254600203610bb057604051633ee5aeb560e01b815260040160405180910390fd5b6060815f03611a075750506040805180820190915260018152600360fc1b602082015290565b815f5b8115611a305780611a1a816125bb565b9150611a299050600a8361283b565b9150611a0a565b5f8167ffffffffffffffff811115611a4a57611a4a61239e565b6040519080825280601f01601f191660200182016040528015611a74576020820181803683370190505b509050815b8515611afe57611a8a600182612701565b90505f611a98600a8861283b565b611aa390600a61285a565b611aad9088612701565b611ab8906030612871565b90505f8160f81b905080848481518110611ad457611ad4612593565b60200101906001600160f81b03191690815f1a905350611af5600a8961283b565b97505050611a79565b50949350505050565b611b118383611ee1565b610c2f335f85858561161e565b5f818152600660205260409020805460609190611b3a9061255b565b80601f0160208091040260200160405190810160405280929190818152602001828054611b669061255b565b8015611bb15780601f10611b8857610100808354040283529160200191611bb1565b820191905f5260205f20905b815481529060010190602001808311611b9457829003601f168201915b50505050509050919050565b6060611bc882611397565b505f611bde60408051602081019091525f815290565b90505f815111611bfc5760405180602001604052805f815250611c27565b80611c0684611f42565b604051602001611c1792919061280d565b6040516020818303038152906040525b9392505050565b5f6001600160e01b031982166380ac58cd60e01b1480611c5e57506001600160e01b03198216635b5e139f60e01b145b8061067257506301ffc9a760e01b6001600160e01b0319831614610672565b5f828152600260205260408120546001600160a01b0390811690831615611ca957611ca9818486611fd2565b6001600160a01b03811615611ce357611cc45f855f806117e3565b6001600160a01b0381165f90815260036020526040902080545f190190555b6001600160a01b03851615611d11576001600160a01b0385165f908152600360205260409020805460010190555b5f8481526002602052604080822080546001600160a01b0319166001600160a01b0389811691821790925591518793918516917fddf252ad1be2c89b69c2b068fc378daa952ba7f163c4a11628f55a4df523b3ef91a4949350505050565b5f611d7983610e22565b5f838152600860209081526040808320546001600160a01b0388168452600790925290912091925090818314611dce575f83815260208281526040808320548584528184208190558352600890915290208290555b5f938452600860209081526040808620869055938552525081205550565b6009545f90611dfd90600190612701565b5f838152600a602052604081205460098054939450909284908110611e2457611e24612593565b905f5260205f20015490508060098381548110611e4357611e43612593565b5f918252602080832090910192909255828152600a90915260408082208490558582528120556009805480611e7a57611e7a61288a565b600190038181905f5260205f20015f9055905550505050565b5f6001611e9f84610e22565b611ea99190612701565b6001600160a01b039093165f908152600760209081526040808320868452825280832085905593825260089052919091209190915550565b6001600160a01b038216611f0a57604051633250574960e11b81525f6004820152602401610a06565b5f611f1683835f6113dc565b90506001600160a01b03811615610c2f576040516339e3563760e11b81525f6004820152602401610a06565b60605f611f4e83612036565b60010190505f8167ffffffffffffffff811115611f6d57611f6d61239e565b6040519080825280601f01601f191660200182016040528015611f97576020820181803683370190505b5090508181016020015b5f19016f181899199a1a9b1b9c1cb0b131b232b360811b600a86061a8153600a8504945084611fa157509392505050565b611fdd83838361210d565b610c2f576001600160a01b03831661200b57604051637e27328960e01b815260048101829052602401610a06565b60405163177e802f60e01b81526001600160a01b038316600482015260248101829052604401610a06565b5f8072184f03e93ff9f4daa797ed6e38ed64bf6a1f0160401b83106120745772184f03e93ff9f4daa797ed6e38ed64bf6a1f0160401b830492506040015b6d04ee2d6d415b85acef810000000083106120a0576d04ee2d6d415b85acef8100000000830492506020015b662386f26fc1000083106120be57662386f26fc10000830492506010015b6305f5e10083106120d6576305f5e100830492506008015b61271083106120ea57612710830492506004015b606483106120fc576064830492506002015b600a83106106725760010192915050565b5f6001600160a01b038316158015906113e85750826001600160a01b0316846001600160a01b0316148061214657506121468484611309565b806113e85750505f908152600460205260409020546001600160a01b03908116911614919050565b6001600160e01b031981168114611370575f80fd5b5f60208284031215612193575f80fd5b8135611c278161216e565b8035600481106121ac575f80fd5b919050565b5f602082840312156121c1575f80fd5b611c278261219e565b5f5b838110156121e45781810151838201526020016121cc565b50505f910152565b5f81518084526122038160208601602086016121ca565b601f01601f19169290920160200192915050565b602081525f611c2760208301846121ec565b5f60208284031215612239575f80fd5b5035919050565b80356001600160a01b03811681146121ac575f80fd5b5f8060408385031215612267575f80fd5b61227083612240565b946020939093013593505050565b5f6020828403121561228e575f80fd5b611c2782612240565b5f80604083850312156122a8575f80fd5b6122b183612240565b91506122bf6020840161219e565b90509250929050565b602080825282518282018190525f9190848201906040850190845b818110156109d5578351835292840192918401916001016122e3565b5f805f60608486031215612311575f80fd5b61231a84612240565b925061232860208501612240565b9150604084013590509250925092565b634e487b7160e01b5f52602160045260245ffd5b6004811061236857634e487b7160e01b5f52602160045260245ffd5b9052565b612376818661234c565b608060208201525f61238b60808301866121ec565b6040830194909452506060015292915050565b634e487b7160e01b5f52604160045260245ffd5b5f67ffffffffffffffff808411156123cc576123cc61239e565b604051601f8501601f19908116603f011681019082821181831017156123f4576123f461239e565b8160405280935085815286868601111561240c575f80fd5b858560208301375f602087830101525050509392505050565b5f8060408385031215612436575f80fd5b61243f8361219e565b9150602083013567ffffffffffffffff81111561245a575f80fd5b8301601f8101851361246a575f80fd5b612479858235602084016123b2565b9150509250929050565b5f8060408385031215612494575f80fd5b61249d83612240565b9150602083013580151581146124b1575f80fd5b809150509250929050565b5f805f80608085870312156124cf575f80fd5b6124d885612240565b93506124e660208601612240565b925060408501359150606085013567ffffffffffffffff811115612508575f80fd5b8501601f81018713612518575f80fd5b612527878235602084016123b2565b91505092959194509250565b5f8060408385031215612544575f80fd5b61254d83612240565b91506122bf60208401612240565b600181811c9082168061256f57607f821691505b60208210810361258d57634e487b7160e01b5f52602260045260245ffd5b50919050565b634e487b7160e01b5f52603260045260245ffd5b634e487b7160e01b5f52601160045260245ffd5b5f600182016125cc576125cc6125a7565b5060010190565b601f821115610c2f57805f5260205f20601f840160051c810160208510156125f85750805b601f840160051c820191505b8181101561173f575f8155600101612604565b815167ffffffffffffffff8111156126315761263161239e565b6126458161263f845461255b565b846125d3565b602080601f831160018114612678575f84156126615750858301515b5f19600386901b1c1916600185901b17855561173d565b5f85815260208120601f198616915b828110156126a657888601518255948401946001909101908401612687565b50858210156126c357878501515f19600388901b60f8161c191681555b5050505050600190811b01905550565b6126dd818561234c565b826020820152606060408201525f6126f860608301846121ec565b95945050505050565b81810381811115610672576106726125a7565b5f8084546127218161255b565b60018281168015612739576001811461274e5761277a565b60ff198416875282151583028701945061277a565b885f526020805f205f5b858110156127715781548a820152908401908201612758565b50505082870194505b50505050602f60f81b815283516127988160018401602088016121ca565b64173539b7b760d91b60019290910191820152600601949350505050565b6001600160a01b03858116825284166020820152604081018390526080606082018190525f906127e8908301846121ec565b9695505050505050565b5f60208284031215612802575f80fd5b8151611c278161216e565b5f835161281e8184602088016121ca565b8351908301906128328183602088016121ca565b01949350505050565b5f8261285557634e487b7160e01b5f52601260045260245ffd5b500490565b8082028115828204841417610672576106726125a7565b60ff8181168382160190811115610672576106726125a7565b634e487b7160e01b5f52603160045260245ffdfe9b779b17422d0df92223018b32b4d1fa46e071723d6817e2486d003becc55f00a2646970667358221220d07fa728d5ee0faf1c9134637e027df3048311423ca66a53888854eab3a0262064736f6c63430008180033",
  "linkReferences": {},
  "deployedLinkReferences": {}
}